{
  "contractName": "VehicleRegistrationRenewal",
  "abi": [
    {
      "constant": true,
      "inputs": [
        {
          "name": "",
          "type": "uint256"
        }
      ],
      "name": "owners",
      "outputs": [
        {
          "name": "ssn",
          "type": "uint256"
        },
        {
          "name": "first_name",
          "type": "string"
        },
        {
          "name": "last_name",
          "type": "string"
        }
      ],
      "payable": false,
      "stateMutability": "view",
      "type": "function",
      "signature": "0x77ec2b55"
    },
    {
      "constant": true,
      "inputs": [],
      "name": "ownerCount",
      "outputs": [
        {
          "name": "",
          "type": "uint256"
        }
      ],
      "payable": false,
      "stateMutability": "view",
      "type": "function",
      "signature": "0xee26fac3"
    },
    {
      "inputs": [],
      "payable": false,
      "stateMutability": "view",
      "type": "function",
      "signature": "constructor",
      "constant": true,
      "name": "vehicleCount",
      "outputs": [
        {
          "name": "",
          "type": "uint256"
        }
      ]
    },
    {
      "constant": true,
      "inputs": [
        {
          "name": "",
          "type": "uint256"
        }
      ],
      "name": "vehicles",
      "outputs": [
        {
          "name": "vin",
          "type": "uint256"
        },
        {
          "name": "year",
          "type": "uint256"
        },
        {
          "name": "model",
          "type": "string"
        }
      ],
      "payable": false,
      "stateMutability": "view",
      "type": "function"
    },
    {
      "inputs": [],
      "payable": false,
      "stateMutability": "nonpayable",
      "type": "constructor"
    }
  ],
  "bytecode": "0x608060405234801561001057600080fd5b506104fa806100206000396000f3fe608060405260043610610062576000357c0100000000000000000000000000000000000000000000000000000000900463ffffffff168063025e7c27146100675780630db026221461018e57806399704937146101b9578063b8ba95fa146101e4575b600080fd5b34801561007357600080fd5b506100a06004803603602081101561008a57600080fd5b81019080803590602001909291905050506102a6565b604051808481526020018060200180602001838103835285818151815260200191508051906020019080838360005b838110156100ea5780820151818401526020810190506100cf565b50505050905090810190601f1680156101175780820380516001836020036101000a031916815260200191505b50838103825284818151815260200191508051906020019080838360005b83811015610150578082015181840152602081019050610135565b50505050905090810190601f16801561017d5780820380516001836020036101000a031916815260200191505b509550505050505060405180910390f35b34801561019a57600080fd5b506101a3610400565b6040518082815260200191505060405180910390f35b3480156101c557600080fd5b506101ce610406565b6040518082815260200191505060405180910390f35b3480156101f057600080fd5b5061021d6004803603602081101561020757600080fd5b810190808035906020019092919050505061040c565b6040518084815260200183815260200180602001828103825283818151815260200191508051906020019080838360005b8381101561026957808201518184015260208101905061024e565b50505050905090810190601f1680156102965780820380516001836020036101000a031916815260200191505b5094505050505060405180910390f35b6001602052806000526040600020600091509050806000015490806001018054600181600116156101000203166002900480601f0160208091040260200160405190810160405280929190818152602001828054600181600116156101000203166002900480156103585780601f1061032d57610100808354040283529160200191610358565b820191906000526020600020905b81548152906001019060200180831161033b57829003601f168201915b505050505090806002018054600181600116156101000203166002900480601f0160208091040260200160405190810160405280929190818152602001828054600181600116156101000203166002900480156103f65780601f106103cb576101008083540402835291602001916103f6565b820191906000526020600020905b8154815290600101906020018083116103d957829003601f168201915b5050505050905083565b60025481565b60035481565b6000602052806000526040600020600091509050806000015490806001015490806002018054600181600116156101000203166002900480601f0160208091040260200160405190810160405280929190818152602001828054600181600116156101000203166002900480156104c45780601f10610499576101008083540402835291602001916104c4565b820191906000526020600020905b8154815290600101906020018083116104a757829003601f168201915b505050505090508356fea165627a7a723058200851e6381f2ffecb936c5b8f78be79ab2c286a75446352415e828607f75ed2600029",
  "source": "pragma solidity ^0.5.0;\r\n\r\ncontract VehicleRegistrationRenewal {\r\n\r\n\tstruct Vehicle {\r\n\t\tuint vin;\r\n\t\tuint year;\r\n\t\tstring model;\r\n\t}\r\n\r\n\tstruct Owner {\r\n\t\tuint ssn;\r\n\t\tstring first_name;\r\n\t\tstring last_name;\r\n\t}\r\n\r\n\tmapping(uint => Vehicle) public vehicles;\r\n\tmapping(uint => Owner) public owners;\r\n\r\n\tuint public ownerCount;\r\n\tuint public vehicleCount;\r\n\r\n\tconstructor() public {\r\n\t\t\r\n\t}\r\n\r\n\tfunction registerVehicle(uint _vin, uint _year, string memory _model, uint _ssn, string memory _firstName, string memory _lastName) private {\r\n\t\townerCount++;\r\n\t\tvehicleCount++;\r\n\t\tvehicles[vehicleCount] = Vehicle(_vin, _year, _model);\r\n\t\towners[ownerCount] = Owner(_ssn, _firstName ,_lastName);\r\n\t}\r\n\r\n}",
  "sourcePath": "C:/dev/projects/dmv/online_services/vehicle_registration_renewal/contracts/VehicleRegistrationRenewal.sol",
  "compiler": {
    "name": "solc",
    "version": "0.5.0+commit.1d4f565a.Emscripten.clang"
  },
  "schemaVersion": "3.0.6",
  "updatedAt": "2019-04-18T01:57:52.620Z",
  "devdoc": {
    "methods": {}
  },
  "userdoc": {
    "methods": {}
  }
}