{
  "contractName": "VehicleRegistrationRenewal",
  "abi": [
    {
      "constant": true,
      "inputs": [],
      "name": "person",
      "outputs": [
        {
          "name": "",
          "type": "string"
        }
      ],
      "payable": false,
      "stateMutability": "view",
      "type": "function",
      "signature": "0x77ec2b55"
    },
    {
      "constant": true,
      "inputs": [],
      "name": "car",
      "outputs": [
        {
          "name": "",
          "type": "string"
        }
      ],
      "payable": false,
      "stateMutability": "view",
      "type": "function",
      "signature": "0xee26fac3"
    },
    {
      "inputs": [],
      "payable": false,
      "stateMutability": "nonpayable",
      "type": "constructor",
      "signature": "constructor"
    }
  ],
  "bytecode": "0x608060405234801561001057600080fd5b50602060405190810160405280600081525060009080519060200190610037929190610064565b5060206040519081016040528060008152506001908051906020019061005e929190610064565b50610109565b828054600181600116156101000203166002900490600052602060002090601f016020900481019282601f106100a557805160ff19168380011785556100d3565b828001600101855582156100d3579182015b828111156100d25782518255916020019190600101906100b7565b5b5090506100e091906100e4565b5090565b61010691905b808211156101025760008160009055506001016100ea565b5090565b90565b6102d9806101186000396000f3fe60806040526004361061004c576000357c0100000000000000000000000000000000000000000000000000000000900463ffffffff16806377ec2b5514610051578063ee26fac3146100e1575b600080fd5b34801561005d57600080fd5b50610066610171565b6040518080602001828103825283818151815260200191508051906020019080838360005b838110156100a657808201518184015260208101905061008b565b50505050905090810190601f1680156100d35780820380516001836020036101000a031916815260200191505b509250505060405180910390f35b3480156100ed57600080fd5b506100f661020f565b6040518080602001828103825283818151815260200191508051906020019080838360005b8381101561013657808201518184015260208101905061011b565b50505050905090810190601f1680156101635780820380516001836020036101000a031916815260200191505b509250505060405180910390f35b60018054600181600116156101000203166002900480601f0160208091040260200160405190810160405280929190818152602001828054600181600116156101000203166002900480156102075780601f106101dc57610100808354040283529160200191610207565b820191906000526020600020905b8154815290600101906020018083116101ea57829003601f168201915b505050505081565b60008054600181600116156101000203166002900480601f0160208091040260200160405190810160405280929190818152602001828054600181600116156101000203166002900480156102a55780601f1061027a576101008083540402835291602001916102a5565b820191906000526020600020905b81548152906001019060200180831161028857829003601f168201915b50505050508156fea165627a7a7230582074523f4ae65d4ce40e9346f91c54ec339f09f20ee194681801cba81f2004a1d60029",
  "source": "pragma solidity ^0.5.0;\r\n\r\ncontract VehicleRegistrationRenewal {\r\n\r\n\tstring public car;\r\n\tstring public person;\r\n\r\n\t// constructor \r\n\tconstructor() public {\r\n\t\tcar = \"\";\r\n\t\tperson = \"\";\r\n\t}\r\n\r\n}",
  "sourcePath": "C:/dev/projects/dmv/online_services/vehicle_registration_renewal/contracts/VehicleRegistrationRenewal.sol",
  "compiler": {
    "name": "solc",
    "version": "0.5.0+commit.1d4f565a.Emscripten.clang"
  },
  "schemaVersion": "3.0.6",
  "updatedAt": "2019-04-18T01:09:01.618Z",
  "devdoc": {
    "methods": {}
  },
  "userdoc": {
    "methods": {}
  }
}