{
  "contractName": "AddressChange",
  "abi": [
    {
      "constant": true,
      "inputs": [
        {
          "name": "",
          "type": "address"
        }
      ],
      "name": "addresses",
      "outputs": [
        {
          "name": "street",
          "type": "string"
        },
        {
          "name": "city",
          "type": "string"
        },
        {
          "name": "state",
          "type": "string"
        },
        {
          "name": "zip",
          "type": "uint256"
        }
      ],
      "payable": false,
      "stateMutability": "view",
      "type": "function",
      "signature": "0x82d38954"
    },
    {
      "constant": true,
      "inputs": [],
      "name": "addressCount",
      "outputs": [
        {
          "name": "",
          "type": "uint256"
        }
      ],
      "payable": false,
      "stateMutability": "view",
      "type": "function",
      "signature": "0x9d80c818"
    },
    {
      "anonymous": false,
      "inputs": [
        {
          "indexed": true,
          "name": "_vin",
          "type": "uint256"
        }
      ],
      "name": "addressUpdateEvent",
      "type": "event",
      "signature": "0xd737242911d85388c7cd67b8a6a898c3cf9928592d3c2ee840025e55a3d8d50b"
    },
    {
      "constant": false,
      "inputs": [
        {
          "name": "_street",
          "type": "string"
        },
        {
          "name": "_city",
          "type": "string"
        },
        {
          "name": "_state",
          "type": "string"
        },
        {
          "name": "_zip",
          "type": "uint256"
        }
      ],
      "name": "changeAddress",
      "outputs": [],
      "payable": false,
      "stateMutability": "nonpayable",
      "type": "function",
      "signature": "0x76227929"
    }
  ],
  "bytecode": "0x608060405234801561001057600080fd5b506107db806100206000396000f3fe608060405260043610610057576000357c0100000000000000000000000000000000000000000000000000000000900463ffffffff168063762279291461005c57806382d389541461025c5780639d80c81814610405575b600080fd5b34801561006857600080fd5b5061025a6004803603608081101561007f57600080fd5b810190808035906020019064010000000081111561009c57600080fd5b8201836020820111156100ae57600080fd5b803590602001918460018302840111640100000000831117156100d057600080fd5b91908080601f016020809104026020016040519081016040528093929190818152602001838380828437600081840152601f19601f8201169050808301925050505050505091929192908035906020019064010000000081111561013357600080fd5b82018360208201111561014557600080fd5b8035906020019184600183028401116401000000008311171561016757600080fd5b91908080601f016020809104026020016040519081016040528093929190818152602001838380828437600081840152601f19601f820116905080830192505050505050509192919290803590602001906401000000008111156101ca57600080fd5b8201836020820111156101dc57600080fd5b803590602001918460018302840111640100000000831117156101fe57600080fd5b91908080601f016020809104026020016040519081016040528093929190818152602001838380828437600081840152601f19601f82011690508083019250505050505050919291929080359060200190929190505050610430565b005b34801561026857600080fd5b506102ab6004803603602081101561027f57600080fd5b81019080803573ffffffffffffffffffffffffffffffffffffffff16906020019092919050505061050c565b60405180806020018060200180602001858152602001848103845288818151815260200191508051906020019080838360005b838110156102f95780820151818401526020810190506102de565b50505050905090810190601f1680156103265780820380516001836020036101000a031916815260200191505b50848103835287818151815260200191508051906020019080838360005b8381101561035f578082015181840152602081019050610344565b50505050905090810190601f16801561038c5780820380516001836020036101000a031916815260200191505b50848103825286818151815260200191508051906020019080838360005b838110156103c55780820151818401526020810190506103aa565b50505050905090810190601f1680156103f25780820380516001836020036101000a031916815260200191505b5097505050505050505060405180910390f35b34801561041157600080fd5b5061041a610704565b6040518082815260200191505060405180910390f35b600160008154809291906001019190505550608060405190810160405280858152602001848152602001838152602001828152506000803373ffffffffffffffffffffffffffffffffffffffff1673ffffffffffffffffffffffffffffffffffffffff16815260200190815260200160002060008201518160000190805190602001906104be92919061070a565b5060208201518160010190805190602001906104db92919061070a565b5060408201518160020190805190602001906104f892919061070a565b506060820151816003015590505050505050565b6000602052806000526040600020600091509050806000018054600181600116156101000203166002900480601f0160208091040260200160405190810160405280929190818152602001828054600181600116156101000203166002900480156105b85780601f1061058d576101008083540402835291602001916105b8565b820191906000526020600020905b81548152906001019060200180831161059b57829003601f168201915b505050505090806001018054600181600116156101000203166002900480601f0160208091040260200160405190810160405280929190818152602001828054600181600116156101000203166002900480156106565780601f1061062b57610100808354040283529160200191610656565b820191906000526020600020905b81548152906001019060200180831161063957829003601f168201915b505050505090806002018054600181600116156101000203166002900480601f0160208091040260200160405190810160405280929190818152602001828054600181600116156101000203166002900480156106f45780601f106106c9576101008083540402835291602001916106f4565b820191906000526020600020905b8154815290600101906020018083116106d757829003601f168201915b5050505050908060030154905084565b60015481565b828054600181600116156101000203166002900490600052602060002090601f016020900481019282601f1061074b57805160ff1916838001178555610779565b82800160010185558215610779579182015b8281111561077857825182559160200191906001019061075d565b5b509050610786919061078a565b5090565b6107ac91905b808211156107a8576000816000905550600101610790565b5090565b9056fea165627a7a723058209430f9e4428d9429a1bc5e59c12535db083acde938f383aff0a1cb6acd795b9b0029",
  "source": "pragma solidity ^0.5.0;\r\n\r\ncontract AddressChange {\r\n\r\n\tstruct Address {\r\n\t\tstring street;\r\n\t\tstring city;\r\n\t\tstring state;\r\n\t\tuint zip;\r\n\t}\r\n\r\n\tmapping(address => Address) public addresses;\r\n\tuint public addressCount;\r\n\r\n\t// registration event\r\n    event addressUpdateEvent (\r\n        uint indexed _vin\r\n    );\r\n\r\n\tfunction changeAddress(string memory _street, string memory _city, string memory _state, uint _zip ) public {\r\n\t\taddressCount++;\r\n\t\taddresses[msg.sender] = Address(_street, _city, _state, _zip);\r\n\t}\r\n\r\n}",
  "sourcePath": "C:/dev/projects/dmv/contracts/AddressChange.sol",
  "compiler": {
    "name": "solc",
    "version": "0.5.0+commit.1d4f565a.Emscripten.clang"
  },
  "schemaVersion": "3.0.6",
  "updatedAt": "2019-04-18T08:16:18.457Z",
  "devdoc": {
    "methods": {}
  },
  "userdoc": {
    "methods": {}
  }
}