{
  "contractName": "AddressChange",
  "abi": [
    {
      "constant": true,
      "inputs": [
        {
          "name": "",
          "type": "address"
        }
      ],
      "name": "addresses",
      "outputs": [
        {
          "name": "street",
          "type": "string"
        },
        {
          "name": "city",
          "type": "string"
        },
        {
          "name": "state",
          "type": "string"
        },
        {
          "name": "zip",
          "type": "uint256"
        }
      ],
      "payable": false,
      "stateMutability": "view",
      "type": "function",
      "signature": "0x82d38954"
    },
    {
      "constant": true,
      "inputs": [],
      "name": "addressCount",
      "outputs": [
        {
          "name": "",
          "type": "uint256"
        }
      ],
      "payable": false,
      "stateMutability": "view",
      "type": "function",
      "signature": "0x9d80c818"
    },
    {
      "anonymous": false,
      "inputs": [
        {
          "indexed": true,
          "name": "_sender",
          "type": "address"
        }
      ],
      "name": "addressUpdateEvent",
      "type": "event",
      "signature": "0xf7f632eff0b9447ccfbc6332662619eb800e587943dd363eadeadda493d02a4f"
    },
    {
      "constant": true,
      "inputs": [],
      "name": "isAddressPresent",
      "outputs": [
        {
          "name": "",
          "type": "bool"
        }
      ],
      "payable": false,
      "stateMutability": "view",
      "type": "function",
      "signature": "0xbe8bfff6"
    },
    {
      "constant": false,
      "inputs": [
        {
          "name": "_street",
          "type": "string"
        },
        {
          "name": "_city",
          "type": "string"
        },
        {
          "name": "_state",
          "type": "string"
        },
        {
          "name": "_zip",
          "type": "uint256"
        }
      ],
      "name": "changeAddress",
      "outputs": [],
      "payable": false,
      "stateMutability": "nonpayable",
      "type": "function",
      "signature": "0x76227929"
    }
  ],
  "bytecode": "0x608060405234801561001057600080fd5b50610943806100206000396000f3fe608060405260043610610062576000357c0100000000000000000000000000000000000000000000000000000000900463ffffffff168063762279291461006757806382d38954146102675780639d80c81814610410578063be8bfff61461043b575b600080fd5b34801561007357600080fd5b506102656004803603608081101561008a57600080fd5b81019080803590602001906401000000008111156100a757600080fd5b8201836020820111156100b957600080fd5b803590602001918460018302840111640100000000831117156100db57600080fd5b91908080601f016020809104026020016040519081016040528093929190818152602001838380828437600081840152601f19601f8201169050808301925050505050505091929192908035906020019064010000000081111561013e57600080fd5b82018360208201111561015057600080fd5b8035906020019184600183028401116401000000008311171561017257600080fd5b91908080601f016020809104026020016040519081016040528093929190818152602001838380828437600081840152601f19601f820116905080830192505050505050509192919290803590602001906401000000008111156101d557600080fd5b8201836020820111156101e757600080fd5b8035906020019184600183028401116401000000008311171561020957600080fd5b91908080601f016020809104026020016040519081016040528093929190818152602001838380828437600081840152601f19601f8201169050808301925050505050505091929192908035906020019092919050505061046a565b005b34801561027357600080fd5b506102b66004803603602081101561028a57600080fd5b81019080803573ffffffffffffffffffffffffffffffffffffffff169060200190929190505050610589565b60405180806020018060200180602001858152602001848103845288818151815260200191508051906020019080838360005b838110156103045780820151818401526020810190506102e9565b50505050905090810190601f1680156103315780820380516001836020036101000a031916815260200191505b50848103835287818151815260200191508051906020019080838360005b8381101561036a57808201518184015260208101905061034f565b50505050905090810190601f1680156103975780820380516001836020036101000a031916815260200191505b50848103825286818151815260200191508051906020019080838360005b838110156103d05780820151818401526020810190506103b5565b50505050905090810190601f1680156103fd5780820380516001836020036101000a031916815260200191505b5097505050505050505060405180910390f35b34801561041c57600080fd5b50610425610781565b6040518082815260200191505060405180910390f35b34801561044757600080fd5b50610450610787565b604051808215151515815260200191505060405180910390f35b600160008154809291906001019190505550608060405190810160405280858152602001848152602001838152602001828152506000803373ffffffffffffffffffffffffffffffffffffffff1673ffffffffffffffffffffffffffffffffffffffff16815260200190815260200160002060008201518160000190805190602001906104f8929190610872565b506020820151816001019080519060200190610515929190610872565b506040820151816002019080519060200190610532929190610872565b50606082015181600301559050503373ffffffffffffffffffffffffffffffffffffffff167ff7f632eff0b9447ccfbc6332662619eb800e587943dd363eadeadda493d02a4f60405160405180910390a250505050565b6000602052806000526040600020600091509050806000018054600181600116156101000203166002900480601f0160208091040260200160405190810160405280929190818152602001828054600181600116156101000203166002900480156106355780601f1061060a57610100808354040283529160200191610635565b820191906000526020600020905b81548152906001019060200180831161061857829003601f168201915b505050505090806001018054600181600116156101000203166002900480601f0160208091040260200160405190810160405280929190818152602001828054600181600116156101000203166002900480156106d35780601f106106a8576101008083540402835291602001916106d3565b820191906000526020600020905b8154815290600101906020018083116106b657829003601f168201915b505050505090806002018054600181600116156101000203166002900480601f0160208091040260200160405190810160405280929190818152602001828054600181600116156101000203166002900480156107715780601f1061074657610100808354040283529160200191610771565b820191906000526020600020905b81548152906001019060200180831161075457829003601f168201915b5050505050908060030154905084565b60015481565b600060606000803373ffffffffffffffffffffffffffffffffffffffff1673ffffffffffffffffffffffffffffffffffffffff1681526020019081526020016000206002018054600181600116156101000203166002900480601f0160208091040260200160405190810160405280929190818152602001828054600181600116156101000203166002900480156108605780601f1061083557610100808354040283529160200191610860565b820191906000526020600020905b81548152906001019060200180831161084357829003601f168201915b50505050509050600081511191505090565b828054600181600116156101000203166002900490600052602060002090601f016020900481019282601f106108b357805160ff19168380011785556108e1565b828001600101855582156108e1579182015b828111156108e05782518255916020019190600101906108c5565b5b5090506108ee91906108f2565b5090565b61091491905b808211156109105760008160009055506001016108f8565b5090565b9056fea165627a7a72305820bd29ce3b21b541824f64bca81edce776f10d9721cd59c69be6dad6542c4470f70029",
  "source": "pragma solidity ^0.5.0;\r\n\r\ncontract AddressChange {\r\n\r\n\tstruct Address {\r\n\t\tstring street;\r\n\t\tstring city;\r\n\t\tstring state;\r\n\t\tuint zip;\r\n\t}\r\n\r\n\tmapping(address => Address) public addresses;\r\n\tuint public addressCount;\r\n\r\n\t// registration event\r\n    event addressUpdateEvent (\r\n        address indexed _sender\r\n    );\r\n\r\n    function isAddressPresent() public view returns (bool) {\r\n    \tbytes memory tempEmptyStringTest = bytes(addresses[msg.sender].state); // Uses memory\r\n    \treturn tempEmptyStringTest.length > 0;\r\n\t}\r\n\r\n\tfunction changeAddress(string memory _street, string memory _city, string memory _state, uint _zip ) public {\r\n\t\taddressCount++;\r\n\t\taddresses[msg.sender] = Address(_street, _city, _state, _zip);\r\n\t\temit addressUpdateEvent(msg.sender);\r\n\t}\r\n\r\n}",
  "sourcePath": "C:/dev/projects/dmv/contracts/AddressChange.sol",
  "compiler": {
    "name": "solc",
    "version": "0.5.0+commit.1d4f565a.Emscripten.clang"
  },
  "schemaVersion": "3.0.6",
  "updatedAt": "2019-04-18T17:49:36.373Z",
  "devdoc": {
    "methods": {}
  },
  "userdoc": {
    "methods": {}
  }
}