{
  "contractName": "DrivingLicenseRenew",
  "abi": [
    {
      "constant": true,
      "inputs": [
        {
          "name": "",
          "type": "address"
        }
      ],
      "name": "renewals",
      "outputs": [
        {
          "name": "expiration",
          "type": "uint256"
        }
      ],
      "payable": false,
      "stateMutability": "view",
      "type": "function",
      "signature": "0x96b4b845"
    },
    {
      "constant": true,
      "inputs": [],
      "name": "renewCount",
      "outputs": [
        {
          "name": "",
          "type": "uint256"
        }
      ],
      "payable": false,
      "stateMutability": "view",
      "type": "function",
      "signature": "0xd2d31dd2"
    },
    {
      "anonymous": false,
      "inputs": [
        {
          "indexed": true,
          "name": "_ssn",
          "type": "address"
        }
      ],
      "name": "licenceRenewEvent",
      "type": "event",
      "signature": "0x6afedaf59c64b56600cd23d94cbccc7c48004454a70e71ee79993b476aa23045"
    },
    {
      "constant": false,
      "inputs": [],
      "name": "renewLicense",
      "outputs": [],
      "payable": false,
      "stateMutability": "nonpayable",
      "type": "function",
      "signature": "0x39b2d9e4"
    }
  ],
  "bytecode": "0x608060405234801561001057600080fd5b50610227806100206000396000f3fe608060405260043610610057576000357c0100000000000000000000000000000000000000000000000000000000900463ffffffff16806339b2d9e41461005c57806396b4b84514610073578063d2d31dd2146100d8575b600080fd5b34801561006857600080fd5b50610071610103565b005b34801561007f57600080fd5b506100c26004803603602081101561009657600080fd5b81019080803573ffffffffffffffffffffffffffffffffffffffff1690602001909291905050506101d7565b6040518082815260200191505060405180910390f35b3480156100e457600080fd5b506100ed6101f5565b6040518082815260200191505060405180910390f35b6001600081548092919060010191905055506000600a90506000816107b26301e133804281151561013057fe5b0401019050602060405190810160405280828152506000803373ffffffffffffffffffffffffffffffffffffffff1673ffffffffffffffffffffffffffffffffffffffff168152602001908152602001600020600082015181600001559050503373ffffffffffffffffffffffffffffffffffffffff167f6afedaf59c64b56600cd23d94cbccc7c48004454a70e71ee79993b476aa2304560405160405180910390a25050565b60006020528060005260406000206000915090508060000154905081565b6001548156fea165627a7a72305820c817e83bd3308f0402dee1a5f0257046839645034b92f7f44063df3f9b32c2da0029",
  "source": "pragma solidity ^0.5.0;\r\n\r\ncontract DrivingLicenseRenew {\r\n\r\n\tstruct License {\r\n\t\tuint expiration;\r\n\t}\r\n\r\n\tmapping(address => License) public renewals;\r\n\tuint public renewCount;\r\n\r\n    event licenceRenewEvent (\r\n        address indexed _ssn\r\n    );\r\n\r\n\tfunction renewLicense() public {\r\n\t\trenewCount++;\r\n\t\tuint _extension_period = 10;\r\n\t\tuint _expiring_year = (now / 31536000) + 1970 + _extension_period;\r\n\t\trenewals[msg.sender] = License(_expiring_year);\r\n\t\temit licenceRenewEvent(msg.sender);\r\n\t}\r\n\r\n}",
  "sourcePath": "C:/dev/projects/dmv/contracts/DrivingLicenseRenew.sol",
  "compiler": {
    "name": "solc",
    "version": "0.5.0+commit.1d4f565a.Emscripten.clang"
  },
  "schemaVersion": "3.0.6",
  "updatedAt": "2019-04-18T19:10:36.744Z",
  "devdoc": {
    "methods": {}
  },
  "userdoc": {
    "methods": {}
  }
}