{
  "contractName": "DrivingLicenseRenew",
  "abi": [
    {
      "constant": true,
      "inputs": [
        {
          "name": "",
          "type": "address"
        }
      ],
      "name": "renewals",
      "outputs": [
        {
          "name": "expiration",
          "type": "uint256"
        }
      ],
      "payable": false,
      "stateMutability": "view",
      "type": "function",
      "signature": "0x96b4b845"
    },
    {
      "constant": true,
      "inputs": [],
      "name": "renewCount",
      "outputs": [
        {
          "name": "",
          "type": "uint256"
        }
      ],
      "payable": false,
      "stateMutability": "view",
      "type": "function",
      "signature": "0xd2d31dd2"
    },
    {
      "anonymous": false,
      "inputs": [
        {
          "indexed": true,
          "name": "_ssn",
          "type": "address"
        }
      ],
      "name": "licenceRenewEvent",
      "type": "event",
      "signature": "0x6afedaf59c64b56600cd23d94cbccc7c48004454a70e71ee79993b476aa23045"
    },
    {
      "constant": true,
      "inputs": [
        {
          "name": "_person",
          "type": "address"
        }
      ],
      "name": "personHasLicense",
      "outputs": [
        {
          "name": "",
          "type": "bool"
        }
      ],
      "payable": false,
      "stateMutability": "view",
      "type": "function",
      "signature": "0xfd8cb15f"
    },
    {
      "constant": true,
      "inputs": [],
      "name": "isRenewalPresent",
      "outputs": [
        {
          "name": "",
          "type": "bool"
        }
      ],
      "payable": false,
      "stateMutability": "view",
      "type": "function",
      "signature": "0xed782b16"
    },
    {
      "constant": false,
      "inputs": [],
      "name": "renewLicense",
      "outputs": [],
      "payable": false,
      "stateMutability": "nonpayable",
      "type": "function",
      "signature": "0x39b2d9e4"
    }
  ],
  "bytecode": "0x608060405234801561001057600080fd5b5061033a806100206000396000f3fe60806040526004361061006d576000357c0100000000000000000000000000000000000000000000000000000000900463ffffffff16806339b2d9e41461007257806396b4b84514610089578063d2d31dd2146100ee578063ed782b1614610119578063fd8cb15f14610148575b600080fd5b34801561007e57600080fd5b506100876101b1565b005b34801561009557600080fd5b506100d8600480360360208110156100ac57600080fd5b81019080803573ffffffffffffffffffffffffffffffffffffffff169060200190929190505050610294565b6040518082815260200191505060405180910390f35b3480156100fa57600080fd5b506101036102b2565b6040518082815260200191505060405180910390f35b34801561012557600080fd5b5061012e6102b8565b604051808215151515815260200191505060405180910390f35b34801561015457600080fd5b506101976004803603602081101561016b57600080fd5b81019080803573ffffffffffffffffffffffffffffffffffffffff169060200190929190505050610303565b604051808215151515815260200191505060405180910390f35b6101ba33610303565b15610292576001600081548092919060010191905055506000600a90506000816107b26301e13380428115156101ec57fe5b0401019050602060405190810160405280828152506000803373ffffffffffffffffffffffffffffffffffffffff1673ffffffffffffffffffffffffffffffffffffffff168152602001908152602001600020600082015181600001559050503373ffffffffffffffffffffffffffffffffffffffff167f6afedaf59c64b56600cd23d94cbccc7c48004454a70e71ee79993b476aa2304560405160405180910390a250505b565b60006020528060005260406000206000915090508060000154905081565b60015481565b6000806000803373ffffffffffffffffffffffffffffffffffffffff1673ffffffffffffffffffffffffffffffffffffffff1681526020019081526020016000206000015411905090565b60006001905091905056fea165627a7a723058200f04054b0ef5ad90e1c4ee5b50836ddadaae91176c34b752f24332de23eaaf440029",
  "source": "pragma solidity ^0.5.0;\r\n\r\ncontract DrivingLicenseRenew {\r\n\r\n\tstruct License {\r\n\t\tuint expiration;\r\n\t}\r\n\r\n\tmapping(address => License) public renewals;\r\n\tuint public renewCount;\r\n\r\n    event licenceRenewEvent (\r\n        address indexed _ssn\r\n    );\r\n\r\n    function personHasLicense(address _person) public view returns (bool) {\r\n    \treturn true;\r\n    }\r\n\r\n    function isRenewalPresent() public view returns (bool) {\r\n    \treturn renewals[msg.sender].expiration > 0;\r\n\t}\r\n\r\n\tfunction renewLicense() public {\r\n\t\tif (personHasLicense(msg.sender)) {\r\n\t\t\trenewCount++;\r\n\t\t\tuint _extension_period = 10;\r\n\t\t\tuint _expiring_year = (now / 31536000) + 1970 + _extension_period;\r\n\t\t\trenewals[msg.sender] = License(_expiring_year);\r\n\t\t\temit licenceRenewEvent(msg.sender);\r\n\t\t}\r\n\t}\r\n\r\n}",
  "sourcePath": "C:/dev/projects/dmv/contracts/DrivingLicenseRenew.sol",
  "compiler": {
    "name": "solc",
    "version": "0.5.0+commit.1d4f565a.Emscripten.clang"
  },
  "schemaVersion": "3.0.6",
  "updatedAt": "2019-04-29T14:27:51.248Z",
  "devdoc": {
    "methods": {}
  },
  "userdoc": {
    "methods": {}
  }
}