{
  "contractName": "DrivingLicenseRenew",
  "abi": [
    {
      "constant": true,
      "inputs": [
        {
          "name": "",
          "type": "address"
        }
      ],
      "name": "renewals",
      "outputs": [
        {
          "name": "expiration",
          "type": "uint256"
        }
      ],
      "payable": false,
      "stateMutability": "view",
      "type": "function",
      "signature": "0x96b4b845"
    },
    {
      "constant": true,
      "inputs": [],
      "name": "renewCount",
      "outputs": [
        {
          "name": "",
          "type": "uint256"
        }
      ],
      "payable": false,
      "stateMutability": "view",
      "type": "function",
      "signature": "0xd2d31dd2"
    },
    {
      "anonymous": false,
      "inputs": [
        {
          "indexed": true,
          "name": "_ssn",
          "type": "address"
        }
      ],
      "name": "licenceRenewEvent",
      "type": "event",
      "signature": "0x6afedaf59c64b56600cd23d94cbccc7c48004454a70e71ee79993b476aa23045"
    },
    {
      "constant": true,
      "inputs": [],
      "name": "isRenewalPresent",
      "outputs": [
        {
          "name": "",
          "type": "bool"
        }
      ],
      "payable": false,
      "stateMutability": "view",
      "type": "function",
      "signature": "0xed782b16"
    },
    {
      "constant": false,
      "inputs": [],
      "name": "renewLicense",
      "outputs": [],
      "payable": false,
      "stateMutability": "nonpayable",
      "type": "function",
      "signature": "0x39b2d9e4"
    }
  ],
  "bytecode": "0x608060405234801561001057600080fd5b506102ac806100206000396000f3fe608060405260043610610062576000357c0100000000000000000000000000000000000000000000000000000000900463ffffffff16806339b2d9e41461006757806396b4b8451461007e578063d2d31dd2146100e3578063ed782b161461010e575b600080fd5b34801561007357600080fd5b5061007c61013d565b005b34801561008a57600080fd5b506100cd600480360360208110156100a157600080fd5b81019080803573ffffffffffffffffffffffffffffffffffffffff169060200190929190505050610211565b6040518082815260200191505060405180910390f35b3480156100ef57600080fd5b506100f861022f565b6040518082815260200191505060405180910390f35b34801561011a57600080fd5b50610123610235565b604051808215151515815260200191505060405180910390f35b6001600081548092919060010191905055506000600a90506000816107b26301e133804281151561016a57fe5b0401019050602060405190810160405280828152506000803373ffffffffffffffffffffffffffffffffffffffff1673ffffffffffffffffffffffffffffffffffffffff168152602001908152602001600020600082015181600001559050503373ffffffffffffffffffffffffffffffffffffffff167f6afedaf59c64b56600cd23d94cbccc7c48004454a70e71ee79993b476aa2304560405160405180910390a25050565b60006020528060005260406000206000915090508060000154905081565b60015481565b6000806000803373ffffffffffffffffffffffffffffffffffffffff1673ffffffffffffffffffffffffffffffffffffffff168152602001908152602001600020600001541190509056fea165627a7a72305820fefbdae7d73b1d41a18cfd51f7529e6d893fff8da0a4494ef722dbd5e00173220029",
  "source": "pragma solidity ^0.5.0;\r\n\r\ncontract DrivingLicenseRenew {\r\n\r\n\tstruct License {\r\n\t\tuint expiration;\r\n\t}\r\n\r\n\tmapping(address => License) public renewals;\r\n\tuint public renewCount;\r\n\r\n    event licenceRenewEvent (\r\n        address indexed _ssn\r\n    );\r\n\r\n    function isRenewalPresent() public view returns (bool) {\r\n    \treturn renewals[msg.sender].expiration > 0;\r\n\t}\r\n\r\n\tfunction renewLicense() public {\r\n\t\trenewCount++;\r\n\t\tuint _extension_period = 10;\r\n\t\tuint _expiring_year = (now / 31536000) + 1970 + _extension_period;\r\n\t\trenewals[msg.sender] = License(_expiring_year);\r\n\t\temit licenceRenewEvent(msg.sender);\r\n\t}\r\n\r\n}",
  "sourcePath": "C:/dev/projects/dmv/contracts/DrivingLicenseRenew.sol",
  "compiler": {
    "name": "solc",
    "version": "0.5.0+commit.1d4f565a.Emscripten.clang"
  },
  "schemaVersion": "3.0.6",
  "updatedAt": "2019-04-29T02:09:37.978Z",
  "devdoc": {
    "methods": {}
  },
  "userdoc": {
    "methods": {}
  }
}