{
  "contractName": "PracticeExam",
  "abi": [
    {
      "constant": true,
      "inputs": [],
      "name": "examCost",
      "outputs": [
        {
          "name": "",
          "type": "uint256"
        }
      ],
      "payable": false,
      "stateMutability": "view",
      "type": "function",
      "signature": "0x1ef7e931"
    },
    {
      "constant": true,
      "inputs": [
        {
          "name": "",
          "type": "address"
        }
      ],
      "name": "purchaseList",
      "outputs": [
        {
          "name": "",
          "type": "bool"
        }
      ],
      "payable": false,
      "stateMutability": "view",
      "type": "function",
      "signature": "0x4b858ad6"
    },
    {
      "constant": true,
      "inputs": [
        {
          "name": "",
          "type": "address"
        }
      ],
      "name": "questions",
      "outputs": [
        {
          "name": "question",
          "type": "string"
        },
        {
          "name": "answer",
          "type": "string"
        }
      ],
      "payable": false,
      "stateMutability": "view",
      "type": "function",
      "signature": "0x6a064d2d"
    },
    {
      "anonymous": false,
      "inputs": [
        {
          "indexed": true,
          "name": "_purchaser",
          "type": "address"
        }
      ],
      "name": "practiceQuestionsPurchased",
      "type": "event",
      "signature": "0x9779d16ff39673ab267370801e3f15aa6ef44726f237dd2044ef8e72e851f30a"
    },
    {
      "constant": true,
      "inputs": [],
      "name": "isExamPurchased",
      "outputs": [
        {
          "name": "",
          "type": "bool"
        }
      ],
      "payable": false,
      "stateMutability": "view",
      "type": "function",
      "signature": "0xc9d6bf85"
    },
    {
      "constant": false,
      "inputs": [
        {
          "name": "_addr",
          "type": "address"
        }
      ],
      "name": "purchaseExam",
      "outputs": [],
      "payable": true,
      "stateMutability": "payable",
      "type": "function",
      "signature": "0x838570c8"
    }
  ],
  "bytecode": "0x6080604052670de0b6b3a764000060005534801561001c57600080fd5b5061074d8061002c6000396000f3fe60806040526004361061006d576000357c0100000000000000000000000000000000000000000000000000000000900463ffffffff1680631ef7e931146100725780634b858ad61461009d5780636a064d2d14610106578063838570c81461023c578063c9d6bf8514610280575b600080fd5b34801561007e57600080fd5b506100876102af565b6040518082815260200191505060405180910390f35b3480156100a957600080fd5b506100ec600480360360208110156100c057600080fd5b81019080803573ffffffffffffffffffffffffffffffffffffffff1690602001909291905050506102b5565b604051808215151515815260200191505060405180910390f35b34801561011257600080fd5b506101556004803603602081101561012957600080fd5b81019080803573ffffffffffffffffffffffffffffffffffffffff1690602001909291905050506102d5565b604051808060200180602001838103835285818151815260200191508051906020019080838360005b8381101561019957808201518184015260208101905061017e565b50505050905090810190601f1680156101c65780820380516001836020036101000a031916815260200191505b50838103825284818151815260200191508051906020019080838360005b838110156101ff5780820151818401526020810190506101e4565b50505050905090810190601f16801561022c5780820380516001836020036101000a031916815260200191505b5094505050505060405180910390f35b61027e6004803603602081101561025257600080fd5b81019080803573ffffffffffffffffffffffffffffffffffffffff169060200190929190505050610429565b005b34801561028c57600080fd5b50610295610628565b604051808215151515815260200191505060405180910390f35b60005481565b60026020528060005260406000206000915054906101000a900460ff1681565b6001602052806000526040600020600091509050806000018054600181600116156101000203166002900480601f0160208091040260200160405190810160405280929190818152602001828054600181600116156101000203166002900480156103815780601f1061035657610100808354040283529160200191610381565b820191906000526020600020905b81548152906001019060200180831161036457829003601f168201915b505050505090806001018054600181600116156101000203166002900480601f01602080910402602001604051908101604052809291908181526020018280546001816001161561010002031660029004801561041f5780601f106103f45761010080835404028352916020019161041f565b820191906000526020600020905b81548152906001019060200180831161040257829003601f168201915b5050505050905082565b610431610628565b1515610625576000543414151561044757600080fd5b8073ffffffffffffffffffffffffffffffffffffffff166108fc349081150290604051600060405180830381858888f1935050505015801561048d573d6000803e3d6000fd5b5060408051908101604052806040805190810160405280601c81526020017f5768617420636f6c6f72206973207468652073746f70207369676e3f0000000081525081526020016040805190810160405280600381526020017f5265640000000000000000000000000000000000000000000000000000000000815250815250600160003373ffffffffffffffffffffffffffffffffffffffff1673ffffffffffffffffffffffffffffffffffffffff168152602001908152602001600020600082015181600001908051906020019061056892919061067c565b50602082015181600101908051906020019061058592919061067c565b509050506001600260003373ffffffffffffffffffffffffffffffffffffffff1673ffffffffffffffffffffffffffffffffffffffff16815260200190815260200160002060006101000a81548160ff0219169083151502179055503373ffffffffffffffffffffffffffffffffffffffff167f9779d16ff39673ab267370801e3f15aa6ef44726f237dd2044ef8e72e851f30a60405160405180910390a25b50565b6000600260003373ffffffffffffffffffffffffffffffffffffffff1673ffffffffffffffffffffffffffffffffffffffff16815260200190815260200160002060009054906101000a900460ff16905090565b828054600181600116156101000203166002900490600052602060002090601f016020900481019282601f106106bd57805160ff19168380011785556106eb565b828001600101855582156106eb579182015b828111156106ea5782518255916020019190600101906106cf565b5b5090506106f891906106fc565b5090565b61071e91905b8082111561071a576000816000905550600101610702565b5090565b9056fea165627a7a72305820e703041e75cc791af9e4f1f1597f1c1ac514194eaa008673a39d2e8939f5749d0029",
  "source": "pragma solidity ^0.5.0;\r\n\r\ncontract PracticeExam {\r\n\r\n\tstruct PracticeQuestion {\r\n\t\tstring question;\r\n\t\tstring answer;\r\n\t}\r\n\r\n\tuint public examCost = 1 ether;\r\n\tmapping(address => PracticeQuestion) public questions;\r\n\tmapping(address => bool) public purchaseList;\r\n\r\n\tevent practiceQuestionsPurchased (\r\n        address indexed _purchaser\r\n    );\r\n\r\n    function isExamPurchased() public view returns (bool) {\r\n    \treturn purchaseList[msg.sender];\r\n\t}\r\n\r\n\tfunction purchaseExam(address payable _addr) payable public {\r\n\t\tif (!isExamPurchased()) {\r\n\t\t\trequire(msg.value == examCost);\r\n        \t_addr.transfer(msg.value);\r\n        \tquestions[msg.sender] = PracticeQuestion(\"What color is the stop sign?\", \"Red\");\r\n        \tpurchaseList[msg.sender] = true;\r\n\t\t\temit practiceQuestionsPurchased(msg.sender);\r\n\t\t}\r\n\t}\r\n}",
  "sourcePath": "C:/dev/projects/dmv/contracts/PracticeExam.sol",
  "compiler": {
    "name": "solc",
    "version": "0.5.0+commit.1d4f565a.Emscripten.clang"
  },
  "schemaVersion": "3.0.6",
  "updatedAt": "2019-04-24T11:32:51.538Z",
  "devdoc": {
    "methods": {}
  },
  "userdoc": {
    "methods": {}
  }
}