{
  "contractName": "ReadLid",
  "abi": [
    {
      "constant": true,
      "inputs": [
        {
          "name": "",
          "type": "address"
        }
      ],
      "name": "realIds",
      "outputs": [
        {
          "name": "canVote",
          "type": "bool"
        },
        {
          "name": "canDrive",
          "type": "bool"
        },
        {
          "name": "canFly",
          "type": "bool"
        },
        {
          "name": "federalEnabled",
          "type": "bool"
        }
      ],
      "payable": false,
      "stateMutability": "view",
      "type": "function",
      "signature": "0x6cb3a2e2"
    },
    {
      "constant": true,
      "inputs": [
        {
          "name": "",
          "type": "address"
        }
      ],
      "name": "purchases",
      "outputs": [
        {
          "name": "",
          "type": "bool"
        }
      ],
      "payable": false,
      "stateMutability": "view",
      "type": "function",
      "signature": "0x842a77d3"
    },
    {
      "constant": true,
      "inputs": [],
      "name": "realIdCost",
      "outputs": [
        {
          "name": "",
          "type": "uint256"
        }
      ],
      "payable": false,
      "stateMutability": "view",
      "type": "function",
      "signature": "0xbdb47f0b"
    },
    {
      "anonymous": false,
      "inputs": [
        {
          "indexed": true,
          "name": "_purchaser",
          "type": "address"
        }
      ],
      "name": "purchasedRealId",
      "type": "event",
      "signature": "0x43897fc5e5107b52d509e5df70966a8302e45a2c15c2182f14be692d1ff3d968"
    },
    {
      "constant": true,
      "inputs": [],
      "name": "isPurchasedReadId",
      "outputs": [
        {
          "name": "",
          "type": "bool"
        }
      ],
      "payable": false,
      "stateMutability": "view",
      "type": "function",
      "signature": "0x4b176ef7"
    },
    {
      "constant": true,
      "inputs": [],
      "name": "isRegisteredVoter",
      "outputs": [
        {
          "name": "",
          "type": "bool"
        }
      ],
      "payable": false,
      "stateMutability": "view",
      "type": "function",
      "signature": "0x1684eb41"
    },
    {
      "constant": true,
      "inputs": [],
      "name": "isRegisteredDriver",
      "outputs": [
        {
          "name": "",
          "type": "bool"
        }
      ],
      "payable": false,
      "stateMutability": "view",
      "type": "function",
      "signature": "0x51218d25"
    },
    {
      "constant": true,
      "inputs": [],
      "name": "isRegisteredFlyer",
      "outputs": [
        {
          "name": "",
          "type": "bool"
        }
      ],
      "payable": false,
      "stateMutability": "view",
      "type": "function",
      "signature": "0x8d526fff"
    },
    {
      "constant": true,
      "inputs": [],
      "name": "isFederal",
      "outputs": [
        {
          "name": "",
          "type": "bool"
        }
      ],
      "payable": false,
      "stateMutability": "view",
      "type": "function",
      "signature": "0x3b5eed02"
    },
    {
      "constant": false,
      "inputs": [
        {
          "name": "_addr",
          "type": "address"
        },
        {
          "name": "_can_vote",
          "type": "bool"
        },
        {
          "name": "_can_drive",
          "type": "bool"
        },
        {
          "name": "_can_fly",
          "type": "bool"
        },
        {
          "name": "_federal",
          "type": "bool"
        }
      ],
      "name": "purchaseRealId",
      "outputs": [],
      "payable": true,
      "stateMutability": "payable",
      "type": "function",
      "signature": "0xef0adf46"
    }
  ],
  "bytecode": "0x6080604052670de0b6b3a764000060005534801561001c57600080fd5b5061077c8061002c6000396000f3fe608060405260043610610099576000357c0100000000000000000000000000000000000000000000000000000000900463ffffffff1680631684eb411461009e5780633b5eed02146100cd5780634b176ef7146100fc57806351218d251461012b5780636cb3a2e21461015a578063842a77d3146101e45780638d526fff1461024d578063bdb47f0b1461027c578063ef0adf46146102a7575b600080fd5b3480156100aa57600080fd5b506100b361031b565b604051808215151515815260200191505060405180910390f35b3480156100d957600080fd5b506100e2610372565b604051808215151515815260200191505060405180910390f35b34801561010857600080fd5b506101116103c9565b604051808215151515815260200191505060405180910390f35b34801561013757600080fd5b50610140610424565b604051808215151515815260200191505060405180910390f35b34801561016657600080fd5b506101a96004803603602081101561017d57600080fd5b81019080803573ffffffffffffffffffffffffffffffffffffffff16906020019092919050505061047b565b604051808515151515815260200184151515158152602001831515151581526020018215151515815260200194505050505060405180910390f35b3480156101f057600080fd5b506102336004803603602081101561020757600080fd5b81019080803573ffffffffffffffffffffffffffffffffffffffff1690602001909291905050506104df565b604051808215151515815260200191505060405180910390f35b34801561025957600080fd5b506102626104ff565b604051808215151515815260200191505060405180910390f35b34801561028857600080fd5b50610291610556565b6040518082815260200191505060405180910390f35b610319600480360360a08110156102bd57600080fd5b81019080803573ffffffffffffffffffffffffffffffffffffffff16906020019092919080351515906020019092919080351515906020019092919080351515906020019092919080351515906020019092919050505061055c565b005b6000600160003373ffffffffffffffffffffffffffffffffffffffff1673ffffffffffffffffffffffffffffffffffffffff16815260200190815260200160002060000160009054906101000a900460ff16905090565b6000600160003373ffffffffffffffffffffffffffffffffffffffff1673ffffffffffffffffffffffffffffffffffffffff16815260200190815260200160002060000160039054906101000a900460ff16905090565b600060011515600260003373ffffffffffffffffffffffffffffffffffffffff1673ffffffffffffffffffffffffffffffffffffffff16815260200190815260200160002060009054906101000a900460ff16151514905090565b6000600160003373ffffffffffffffffffffffffffffffffffffffff1673ffffffffffffffffffffffffffffffffffffffff16815260200190815260200160002060000160019054906101000a900460ff16905090565b60016020528060005260406000206000915090508060000160009054906101000a900460ff16908060000160019054906101000a900460ff16908060000160029054906101000a900460ff16908060000160039054906101000a900460ff16905084565b60026020528060005260406000206000915054906101000a900460ff1681565b6000600160003373ffffffffffffffffffffffffffffffffffffffff1673ffffffffffffffffffffffffffffffffffffffff16815260200190815260200160002060000160029054906101000a900460ff16905090565b60005481565b6105646103c9565b1515610749576000543414151561057a57600080fd5b8473ffffffffffffffffffffffffffffffffffffffff166108fc349081150290604051600060405180830381858888f193505050501580156105c0573d6000803e3d6000fd5b50608060405190810160405280851515815260200184151581526020018315158152602001821515815250600160003373ffffffffffffffffffffffffffffffffffffffff1673ffffffffffffffffffffffffffffffffffffffff16815260200190815260200160002060008201518160000160006101000a81548160ff02191690831515021790555060208201518160000160016101000a81548160ff02191690831515021790555060408201518160000160026101000a81548160ff02191690831515021790555060608201518160000160036101000a81548160ff0219169083151502179055509050506001600260003373ffffffffffffffffffffffffffffffffffffffff1673ffffffffffffffffffffffffffffffffffffffff16815260200190815260200160002060006101000a81548160ff0219169083151502179055503373ffffffffffffffffffffffffffffffffffffffff167f43897fc5e5107b52d509e5df70966a8302e45a2c15c2182f14be692d1ff3d96860405160405180910390a25b505050505056fea165627a7a72305820842f7f86e3d278ee9a04d6fa702eacf42ad19a7f4cf201a3ff486991837790620029",
  "source": "pragma solidity ^0.5.0;\r\n\r\ncontract ReadLid {\r\n\r\n\tstruct Identification {\r\n\t\tbool canVote;\r\n\t\tbool canDrive;\r\n\t\tbool canFly;\r\n\t\tbool federalEnabled;\r\n\t}\r\n\r\n\tuint public realIdCost = 1 ether; \r\n\tmapping(address => Identification) public realIds;\r\n\tmapping(address => bool) public purchases;\r\n\r\n    event purchasedRealId (\r\n    \taddress indexed _purchaser\r\n    );\r\n\r\n    function isPurchasedReadId() public view returns (bool) {\r\n\t\treturn purchases[msg.sender] == true;\r\n\t}\r\n\r\n    function isRegisteredVoter() public view returns (bool) {\r\n    \treturn realIds[msg.sender].canVote;\r\n    }\r\n\r\n    function isRegisteredDriver() public view returns (bool) {\r\n    \treturn realIds[msg.sender].canDrive;\r\n    }\r\n\r\n    function isRegisteredFlyer() public view returns (bool) {\r\n    \treturn realIds[msg.sender].canFly;\r\n    }\r\n\r\n    function isFederal() public view returns (bool) {\r\n    \treturn realIds[msg.sender].federalEnabled;\r\n\t}\r\n\r\n\tfunction purchaseRealId(address payable _addr, bool _can_vote, bool _can_drive, bool _can_fly, bool _federal) payable public {\r\n\t\tif (!isPurchasedReadId()) {\r\n\t\t\trequire(msg.value == realIdCost);\r\n        \t_addr.transfer(msg.value);\r\n        \t// we can now add them as a real id owner\r\n        \trealIds[msg.sender] = Identification(_can_vote, _can_drive, _can_fly, _federal);\r\n        \tpurchases[msg.sender] = true;\r\n\t\t\temit purchasedRealId(msg.sender);\r\n\t\t}\r\n\t}\r\n}",
  "sourcePath": "C:/dev/projects/dmv/contracts/RealId.sol",
  "compiler": {
    "name": "solc",
    "version": "0.5.0+commit.1d4f565a.Emscripten.clang"
  },
  "schemaVersion": "3.0.6",
  "updatedAt": "2019-04-24T11:32:51.571Z",
  "devdoc": {
    "methods": {}
  },
  "userdoc": {
    "methods": {}
  }
}