{
  "contractName": "SellDonateCar",
  "abi": [
    {
      "constant": true,
      "inputs": [],
      "name": "cost",
      "outputs": [
        {
          "name": "",
          "type": "uint256"
        }
      ],
      "payable": false,
      "stateMutability": "view",
      "type": "function",
      "signature": "0x13faede6"
    },
    {
      "constant": true,
      "inputs": [
        {
          "name": "",
          "type": "address"
        }
      ],
      "name": "cars",
      "outputs": [
        {
          "name": "year",
          "type": "uint256"
        },
        {
          "name": "make",
          "type": "string"
        },
        {
          "name": "model",
          "type": "string"
        }
      ],
      "payable": false,
      "stateMutability": "view",
      "type": "function",
      "signature": "0xafd79cbd"
    },
    {
      "anonymous": false,
      "inputs": [
        {
          "indexed": true,
          "name": "_owner",
          "type": "address"
        }
      ],
      "name": "carSoldDonated",
      "type": "event",
      "signature": "0x4a0e9b0b082c769c20f1ca7b47e746fc59cbae5ef3acfddf648485c153a04410"
    },
    {
      "constant": true,
      "inputs": [
        {
          "name": "_owner",
          "type": "address"
        }
      ],
      "name": "isCarOwned",
      "outputs": [
        {
          "name": "",
          "type": "bool"
        }
      ],
      "payable": false,
      "stateMutability": "view",
      "type": "function",
      "signature": "0x6b6cd267"
    },
    {
      "constant": false,
      "inputs": [
        {
          "name": "_year",
          "type": "uint256"
        },
        {
          "name": "_make",
          "type": "string"
        },
        {
          "name": "_model",
          "type": "string"
        }
      ],
      "name": "addCarForSale",
      "outputs": [
        {
          "name": "",
          "type": "bool"
        }
      ],
      "payable": false,
      "stateMutability": "nonpayable",
      "type": "function",
      "signature": "0x79c820c2"
    },
    {
      "constant": false,
      "inputs": [
        {
          "name": "_owner",
          "type": "address"
        }
      ],
      "name": "purchaseCar",
      "outputs": [],
      "payable": true,
      "stateMutability": "payable",
      "type": "function",
      "signature": "0x71b8208e"
    }
  ],
  "bytecode": "0x6080604052670de0b6b3a764000060005534801561001c57600080fd5b50610b5b8061002c6000396000f3fe60806040526004361061006d576000357c0100000000000000000000000000000000000000000000000000000000900463ffffffff16806313faede6146100725780636b6cd2671461009d57806371b8208e1461010657806379c820c21461014a578063afd79cbd146102cb575b600080fd5b34801561007e57600080fd5b50610087610408565b6040518082815260200191505060405180910390f35b3480156100a957600080fd5b506100ec600480360360208110156100c057600080fd5b81019080803573ffffffffffffffffffffffffffffffffffffffff16906020019092919050505061040e565b604051808215151515815260200191505060405180910390f35b6101486004803603602081101561011c57600080fd5b81019080803573ffffffffffffffffffffffffffffffffffffffff16906020019092919050505061045c565b005b34801561015657600080fd5b506102b16004803603606081101561016d57600080fd5b81019080803590602001909291908035906020019064010000000081111561019457600080fd5b8201836020820111156101a657600080fd5b803590602001918460018302840111640100000000831117156101c857600080fd5b91908080601f016020809104026020016040519081016040528093929190818152602001838380828437600081840152601f19601f8201169050808301925050505050505091929192908035906020019064010000000081111561022b57600080fd5b82018360208201111561023d57600080fd5b8035906020019184600183028401116401000000008311171561025f57600080fd5b91908080601f016020809104026020016040519081016040528093929190818152602001838380828437600081840152601f19601f820116905080830192505050505050509192919290505050610875565b604051808215151515815260200191505060405180910390f35b3480156102d757600080fd5b5061031a600480360360208110156102ee57600080fd5b81019080803573ffffffffffffffffffffffffffffffffffffffff169060200190929190505050610930565b604051808481526020018060200180602001838103835285818151815260200191508051906020019080838360005b83811015610364578082015181840152602081019050610349565b50505050905090810190601f1680156103915780820380516001836020036101000a031916815260200191505b50838103825284818151815260200191508051906020019080838360005b838110156103ca5780820151818401526020810190506103af565b50505050905090810190601f1680156103f75780820380516001836020036101000a031916815260200191505b509550505050505060405180910390f35b60005481565b600080600160008473ffffffffffffffffffffffffffffffffffffffff1673ffffffffffffffffffffffffffffffffffffffff16815260200190815260200160002060000154119050919050565b6104658161040e565b801561047757506104753361040e565b155b15610872576000543414151561048c57600080fd5b8073ffffffffffffffffffffffffffffffffffffffff166108fc349081150290604051600060405180830381858888f193505050501580156104d2573d6000803e3d6000fd5b50606060405190810160405280600160008473ffffffffffffffffffffffffffffffffffffffff1673ffffffffffffffffffffffffffffffffffffffff168152602001908152602001600020600001548152602001600160008473ffffffffffffffffffffffffffffffffffffffff1673ffffffffffffffffffffffffffffffffffffffff1681526020019081526020016000206001018054600181600116156101000203166002900480601f0160208091040260200160405190810160405280929190818152602001828054600181600116156101000203166002900480156105fd5780601f106105d2576101008083540402835291602001916105fd565b820191906000526020600020905b8154815290600101906020018083116105e057829003601f168201915b50505050508152602001600160008473ffffffffffffffffffffffffffffffffffffffff1673ffffffffffffffffffffffffffffffffffffffff1681526020019081526020016000206002018054600181600116156101000203166002900480601f0160208091040260200160405190810160405280929190818152602001828054600181600116156101000203166002900480156106dd5780601f106106b2576101008083540402835291602001916106dd565b820191906000526020600020905b8154815290600101906020018083116106c057829003601f168201915b5050505050815250600160003373ffffffffffffffffffffffffffffffffffffffff1673ffffffffffffffffffffffffffffffffffffffff16815260200190815260200160002060008201518160000155602082015181600101908051906020019061074a929190610a8a565b506040820151816002019080519060200190610767929190610a8a565b5090505060606040519081016040528060008152602001602060405190810160405280600081525081526020016020604051908101604052806000815250815250600160008373ffffffffffffffffffffffffffffffffffffffff1673ffffffffffffffffffffffffffffffffffffffff16815260200190815260200160002060008201518160000155602082015181600101908051906020019061080d929190610a8a565b50604082015181600201908051906020019061082a929190610a8a565b509050508073ffffffffffffffffffffffffffffffffffffffff167f4a0e9b0b082c769c20f1ca7b47e746fc59cbae5ef3acfddf648485c153a0441060405160405180910390a25b50565b60006108803361040e565b15156109295760606040519081016040528085815260200184815260200183815250600160003373ffffffffffffffffffffffffffffffffffffffff1673ffffffffffffffffffffffffffffffffffffffff168152602001908152602001600020600082015181600001556020820151816001019080519060200190610907929190610a8a565b506040820151816002019080519060200190610924929190610a8a565b509050505b9392505050565b6001602052806000526040600020600091509050806000015490806001018054600181600116156101000203166002900480601f0160208091040260200160405190810160405280929190818152602001828054600181600116156101000203166002900480156109e25780601f106109b7576101008083540402835291602001916109e2565b820191906000526020600020905b8154815290600101906020018083116109c557829003601f168201915b505050505090806002018054600181600116156101000203166002900480601f016020809104026020016040519081016040528092919081815260200182805460018160011615610100020316600290048015610a805780601f10610a5557610100808354040283529160200191610a80565b820191906000526020600020905b815481529060010190602001808311610a6357829003601f168201915b5050505050905083565b828054600181600116156101000203166002900490600052602060002090601f016020900481019282601f10610acb57805160ff1916838001178555610af9565b82800160010185558215610af9579182015b82811115610af8578251825591602001919060010190610add565b5b509050610b069190610b0a565b5090565b610b2c91905b80821115610b28576000816000905550600101610b10565b5090565b9056fea165627a7a723058203bb377e8146d6dda083c4874078a97b05b1e67845500b332ebe45091dc9d0c830029",
  "source": "pragma solidity ^0.5.0;\r\n\r\ncontract SellDonateCar {\r\n\r\n\tstruct Car {\r\n        uint year;\r\n        string make;\r\n        string model;\r\n\t}\r\n\r\n    uint public cost = 1 ether;\r\n\tmapping(address => Car) public cars;\r\n\r\n    event carSoldDonated (\r\n    \taddress indexed _owner\r\n    );\r\n\r\n    function isCarOwned(address _owner) public view returns (bool) {\r\n        return cars[_owner].year > 0;\r\n    }\r\n\r\n    function addCarForSale(uint _year, string memory _make, string memory _model) public returns (bool) {\r\n        // to make thing simple, 1 owner 1 sale\r\n        if (!isCarOwned(msg.sender)) {\r\n            cars[msg.sender] = Car(_year, _make, _model);\r\n        }\r\n    }\r\n\r\n    function purchaseCar(address payable _owner) payable public {\r\n        if (isCarOwned(_owner) && !isCarOwned(msg.sender)) {\r\n            require(msg.value == cost);\r\n            _owner.transfer(msg.value);\r\n            // transfer the car\r\n            cars[msg.sender] = Car(cars[_owner].year, cars[_owner].make, cars[_owner].model );\r\n            cars[_owner] = Car(0, \"\", \"\");\r\n            emit carSoldDonated(_owner);\r\n        }\r\n    }\r\n\r\n}",
  "sourcePath": "C:/dev/projects/dmv/contracts/SellDonateCar.sol",
  "compiler": {
    "name": "solc",
    "version": "0.5.0+commit.1d4f565a.Emscripten.clang"
  },
  "schemaVersion": "3.0.6",
  "updatedAt": "2019-04-24T20:52:04.541Z",
  "devdoc": {
    "methods": {}
  },
  "userdoc": {
    "methods": {}
  }
}