{
  "contractName": "Titling",
  "abi": [
    {
      "constant": true,
      "inputs": [
        {
          "name": "",
          "type": "address"
        }
      ],
      "name": "carTitles",
      "outputs": [
        {
          "name": "vin",
          "type": "uint256"
        }
      ],
      "payable": false,
      "stateMutability": "view",
      "type": "function",
      "signature": "0x8645369d"
    },
    {
      "anonymous": false,
      "inputs": [
        {
          "indexed": true,
          "name": "_owner",
          "type": "address"
        }
      ],
      "name": "carTitled",
      "type": "event",
      "signature": "0x23df0434b8de667916ea16cc09a5d9c07a0d59b262dda8634dcea6dcc0fdd77a"
    },
    {
      "constant": true,
      "inputs": [],
      "name": "isCarTitled",
      "outputs": [
        {
          "name": "",
          "type": "bool"
        }
      ],
      "payable": false,
      "stateMutability": "view",
      "type": "function",
      "signature": "0xeb4842c6"
    },
    {
      "constant": false,
      "inputs": [
        {
          "name": "_vin",
          "type": "uint256"
        }
      ],
      "name": "titleCar",
      "outputs": [],
      "payable": false,
      "stateMutability": "nonpayable",
      "type": "function",
      "signature": "0x2dbe46c2"
    }
  ],
  "bytecode": "0x608060405234801561001057600080fd5b50610270806100206000396000f3fe608060405260043610610057576000357c0100000000000000000000000000000000000000000000000000000000900463ffffffff1680632dbe46c21461005c5780638645369d14610097578063eb4842c6146100fc575b600080fd5b34801561006857600080fd5b506100956004803603602081101561007f57600080fd5b810190808035906020019092919050505061012b565b005b3480156100a357600080fd5b506100e6600480360360208110156100ba57600080fd5b81019080803573ffffffffffffffffffffffffffffffffffffffff1690602001909291905050506101db565b6040518082815260200191505060405180910390f35b34801561010857600080fd5b506101116101f9565b604051808215151515815260200191505060405180910390f35b6101336101f9565b15156101d857602060405190810160405280828152506000803373ffffffffffffffffffffffffffffffffffffffff1673ffffffffffffffffffffffffffffffffffffffff168152602001908152602001600020600082015181600001559050503373ffffffffffffffffffffffffffffffffffffffff167f23df0434b8de667916ea16cc09a5d9c07a0d59b262dda8634dcea6dcc0fdd77a60405160405180910390a25b50565b60006020528060005260406000206000915090508060000154905081565b6000806000803373ffffffffffffffffffffffffffffffffffffffff1673ffffffffffffffffffffffffffffffffffffffff168152602001908152602001600020600001541190509056fea165627a7a723058203c55f36b04837b85f36e3d92b1136f86f1fe055b420cdb2e149c9cabf4c52ffc0029",
  "source": "pragma solidity ^0.5.0;\r\n\r\ncontract Titling {\r\n\r\n    struct Title {\r\n        uint vin;\r\n    }\r\n\r\n\tmapping(address => Title) public carTitles;\r\n\r\n    event carTitled (\r\n    \taddress indexed _owner\r\n    );\r\n\r\n    function isCarTitled() public view returns (bool) {\r\n        return carTitles[msg.sender].vin > 0;\r\n    }\r\n\r\n    function titleCar(uint _vin) public {\r\n        if (!isCarTitled()) {\r\n            carTitles[msg.sender] = Title(_vin);\r\n            emit carTitled(msg.sender);\r\n        }\r\n    }\r\n\r\n}",
  "sourcePath": "C:/dev/projects/dmv/contracts/Titling.sol",
  "compiler": {
    "name": "solc",
    "version": "0.5.0+commit.1d4f565a.Emscripten.clang"
  },
  "schemaVersion": "3.0.6",
  "updatedAt": "2019-04-29T02:09:38.023Z",
  "devdoc": {
    "methods": {}
  },
  "userdoc": {
    "methods": {}
  }
}