{
  "contractName": "VehicleRegistrationRenewal",
  "abi": [
    {
      "constant": true,
      "inputs": [],
      "name": "registrationCount",
      "outputs": [
        {
          "name": "",
          "type": "uint256"
        }
      ],
      "payable": false,
      "stateMutability": "view",
      "type": "function"
    },
    {
      "constant": true,
      "inputs": [
        {
          "name": "",
          "type": "uint256"
        }
      ],
      "name": "registrations",
      "outputs": [
        {
          "name": "car_vin",
          "type": "uint256"
        },
        {
          "name": "car_year",
          "type": "uint256"
        },
        {
          "name": "car_model",
          "type": "string"
        },
        {
          "name": "owner_ssn",
          "type": "uint256"
        },
        {
          "name": "owner_first_name",
          "type": "string"
        },
        {
          "name": "owner_last_name",
          "type": "string"
        }
      ],
      "payable": false,
      "stateMutability": "view",
      "type": "function"
    },
    {
      "inputs": [],
      "payable": false,
      "stateMutability": "nonpayable",
      "type": "constructor"
    }
  ],
  "bytecode": "0x608060405234801561001057600080fd5b50610453806100206000396000f3fe60806040526004361061004c576000357c0100000000000000000000000000000000000000000000000000000000900463ffffffff1680630d3eafd614610051578063f4ddb5be1461007c575b600080fd5b34801561005d57600080fd5b5061006661021d565b6040518082815260200191505060405180910390f35b34801561008857600080fd5b506100b56004803603602081101561009f57600080fd5b8101908080359060200190929190505050610223565b60405180878152602001868152602001806020018581526020018060200180602001848103845288818151815260200191508051906020019080838360005b8381101561010f5780820151818401526020810190506100f4565b50505050905090810190601f16801561013c5780820380516001836020036101000a031916815260200191505b50848103835286818151815260200191508051906020019080838360005b8381101561017557808201518184015260208101905061015a565b50505050905090810190601f1680156101a25780820380516001836020036101000a031916815260200191505b50848103825285818151815260200191508051906020019080838360005b838110156101db5780820151818401526020810190506101c0565b50505050905090810190601f1680156102085780820380516001836020036101000a031916815260200191505b50995050505050505050505060405180910390f35b60015481565b6000602052806000526040600020600091509050806000015490806001015490806002018054600181600116156101000203166002900480601f0160208091040260200160405190810160405280929190818152602001828054600181600116156101000203166002900480156102db5780601f106102b0576101008083540402835291602001916102db565b820191906000526020600020905b8154815290600101906020018083116102be57829003601f168201915b505050505090806003015490806004018054600181600116156101000203166002900480601f01602080910402602001604051908101604052809291908181526020018280546001816001161561010002031660029004801561037f5780601f106103545761010080835404028352916020019161037f565b820191906000526020600020905b81548152906001019060200180831161036257829003601f168201915b505050505090806005018054600181600116156101000203166002900480601f01602080910402602001604051908101604052809291908181526020018280546001816001161561010002031660029004801561041d5780601f106103f25761010080835404028352916020019161041d565b820191906000526020600020905b81548152906001019060200180831161040057829003601f168201915b505050505090508656fea165627a7a723058202077b913c96394501f3b13ad78429163e8416e175c4784ba0f1f3e3cdbff7d360029",
  "source": "pragma solidity ^0.5.0;\r\n\r\ncontract VehicleRegistrationRenewal {\r\n\r\n\tstruct Registration {\r\n\t\tuint car_vin;\r\n\t\tuint car_year;\r\n\t\tstring car_model;\r\n\t\tuint owner_ssn;\r\n\t\tstring owner_first_name;\r\n\t\tstring owner_last_name;\r\n\t}\r\n\r\n\tmapping(uint => Registration) public registrations;\r\n\r\n\tuint public registrationCount;\r\n\r\n\tconstructor() public {\r\n\t\t// nothing for now\r\n\t}\r\n\r\n\tfunction processRegistration(uint _vin, uint _year, string memory _model, uint _ssn, string memory _firstName, string memory _lastName) private {\r\n\t\tregistrationCount++;\r\n\t\tregistrations[registrationCount] = Registration(_vin, _year, _model, _ssn, _firstName ,_lastName);\r\n\t}\r\n\r\n}",
  "sourcePath": "C:/dev/projects/dmv/contracts/VehicleRegistrationRenewal.sol",
  "compiler": {
    "name": "solc",
    "version": "0.5.0+commit.1d4f565a.Emscripten.clang"
  },
  "schemaVersion": "3.0.6",
  "updatedAt": "2019-04-18T03:17:27.275Z",
  "devdoc": {
    "methods": {}
  },
  "userdoc": {
    "methods": {}
  }
}