{
  "contractName": "VehicleRegistrationRenewal",
  "abi": [
    {
      "constant": true,
      "inputs": [],
      "name": "registrationCount",
      "outputs": [
        {
          "name": "",
          "type": "uint256"
        }
      ],
      "payable": false,
      "stateMutability": "view",
      "type": "function",
      "signature": "0x0d3eafd6"
    },
    {
      "constant": true,
      "inputs": [
        {
          "name": "",
          "type": "address"
        }
      ],
      "name": "registrations",
      "outputs": [
        {
          "name": "car_vin",
          "type": "uint256"
        },
        {
          "name": "car_year",
          "type": "uint256"
        },
        {
          "name": "car_model",
          "type": "string"
        },
        {
          "name": "expiring_year",
          "type": "uint256"
        }
      ],
      "payable": false,
      "stateMutability": "view",
      "type": "function",
      "signature": "0x942e6bcf"
    },
    {
      "anonymous": false,
      "inputs": [
        {
          "indexed": true,
          "name": "_vin",
          "type": "uint256"
        }
      ],
      "name": "registrationEvent",
      "type": "event",
      "signature": "0x53876d202e8907a1c0388360a3e5be907759545bdde15ddcb06ce86299fa606b"
    },
    {
      "constant": true,
      "inputs": [],
      "name": "isRegistrationPresent",
      "outputs": [
        {
          "name": "",
          "type": "bool"
        }
      ],
      "payable": false,
      "stateMutability": "view",
      "type": "function",
      "signature": "0x78e29874"
    },
    {
      "constant": false,
      "inputs": [
        {
          "name": "_vin",
          "type": "uint256"
        },
        {
          "name": "_year",
          "type": "uint256"
        },
        {
          "name": "_model",
          "type": "string"
        }
      ],
      "name": "processRegistration",
      "outputs": [],
      "payable": false,
      "stateMutability": "nonpayable",
      "type": "function",
      "signature": "0x01269fe4"
    },
    {
      "constant": false,
      "inputs": [
        {
          "name": "_to",
          "type": "address"
        }
      ],
      "name": "reportSoldTraded",
      "outputs": [],
      "payable": false,
      "stateMutability": "nonpayable",
      "type": "function",
      "signature": "0x52ac8923"
    }
  ],
  "bytecode": "0x608060405234801561001057600080fd5b5061090d806100206000396000f3fe60806040526004361061006d576000357c0100000000000000000000000000000000000000000000000000000000900463ffffffff16806301269fe4146100725780630d3eafd61461014e57806352ac89231461017957806378e29874146101ca578063942e6bcf146101f9575b600080fd5b34801561007e57600080fd5b5061014c6004803603606081101561009557600080fd5b810190808035906020019092919080359060200190929190803590602001906401000000008111156100c657600080fd5b8201836020820111156100d857600080fd5b803590602001918460018302840111640100000000831117156100fa57600080fd5b91908080601f016020809104026020016040519081016040528093929190818152602001838380828437600081840152601f19601f8201169050808301925050505050505091929192905050506102d8565b005b34801561015a57600080fd5b506101636103e2565b6040518082815260200191505060405180910390f35b34801561018557600080fd5b506101c86004803603602081101561019c57600080fd5b81019080803573ffffffffffffffffffffffffffffffffffffffff1690602001909291905050506103e8565b005b3480156101d657600080fd5b506101df610729565b604051808215151515815260200191505060405180910390f35b34801561020557600080fd5b506102486004803603602081101561021c57600080fd5b81019080803573ffffffffffffffffffffffffffffffffffffffff169060200190929190505050610774565b6040518085815260200184815260200180602001838152602001828103825284818151815260200191508051906020019080838360005b8381101561029a57808201518184015260208101905061027f565b50505050905090810190601f1680156102c75780820380516001836020036101000a031916815260200191505b509550505050505060405180910390f35b6102e0610729565b15156103dd5760016000815480929190600101919050555060006107b26301e133804281151561030c57fe5b04019050608060405190810160405280858152602001848152602001838152602001828152506000803373ffffffffffffffffffffffffffffffffffffffff1673ffffffffffffffffffffffffffffffffffffffff168152602001908152602001600020600082015181600001556020820151816001015560408201518160020190805190602001906103a092919061083c565b5060608201518160030155905050837f53876d202e8907a1c0388360a3e5be907759545bdde15ddcb06ce86299fa606b60405160405180910390a2505b505050565b60015481565b6103f0610729565b156107265760008060003373ffffffffffffffffffffffffffffffffffffffff1673ffffffffffffffffffffffffffffffffffffffff16815260200190815260200160002060000154905060008060003373ffffffffffffffffffffffffffffffffffffffff1673ffffffffffffffffffffffffffffffffffffffff16815260200190815260200160002060010154905060606000803373ffffffffffffffffffffffffffffffffffffffff1673ffffffffffffffffffffffffffffffffffffffff1681526020019081526020016000206002018054600181600116156101000203166002900480601f0160208091040260200160405190810160405280929190818152602001828054600181600116156101000203166002900480156105585780601f1061052d57610100808354040283529160200191610558565b820191906000526020600020905b81548152906001019060200180831161053b57829003601f168201915b5050505050905060008060003373ffffffffffffffffffffffffffffffffffffffff1673ffffffffffffffffffffffffffffffffffffffff16815260200190815260200160002060030154905060806040519081016040528060008152602001600081526020016020604051908101604052806000815250815260200160008152506000803373ffffffffffffffffffffffffffffffffffffffff1673ffffffffffffffffffffffffffffffffffffffff1681526020019081526020016000206000820151816000015560208201518160010155604082015181600201908051906020019061064892919061083c565b5060608201518160030155905050608060405190810160405280858152602001848152602001838152602001828152506000808773ffffffffffffffffffffffffffffffffffffffff1673ffffffffffffffffffffffffffffffffffffffff168152602001908152602001600020600082015181600001556020820151816001015560408201518160020190805190602001906106e692919061083c565b5060608201518160030155905050837f53876d202e8907a1c0388360a3e5be907759545bdde15ddcb06ce86299fa606b60405160405180910390a2505050505b50565b6000806000803373ffffffffffffffffffffffffffffffffffffffff1673ffffffffffffffffffffffffffffffffffffffff1681526020019081526020016000206003015411905090565b6000602052806000526040600020600091509050806000015490806001015490806002018054600181600116156101000203166002900480601f01602080910402602001604051908101604052809291908181526020018280546001816001161561010002031660029004801561082c5780601f106108015761010080835404028352916020019161082c565b820191906000526020600020905b81548152906001019060200180831161080f57829003601f168201915b5050505050908060030154905084565b828054600181600116156101000203166002900490600052602060002090601f016020900481019282601f1061087d57805160ff19168380011785556108ab565b828001600101855582156108ab579182015b828111156108aa57825182559160200191906001019061088f565b5b5090506108b891906108bc565b5090565b6108de91905b808211156108da5760008160009055506001016108c2565b5090565b9056fea165627a7a72305820ba349d8582ebae8b2aca118930a73bdc7deb8fc1260c129c23afb0caf4076cee0029",
  "source": "pragma solidity ^0.5.0;\r\n\r\ncontract VehicleRegistrationRenewal {\r\n\r\n\tstruct Registration {\r\n\t\tuint car_vin;\r\n\t\tuint car_year;\r\n\t\tstring car_model;\r\n\t\tuint expiring_year;\r\n\t}\r\n\r\n\tmapping(address => Registration) public registrations;\r\n\r\n\tuint public registrationCount;\r\n\r\n\t// registration event\r\n    event registrationEvent (\r\n        uint indexed _vin\r\n    );\r\n\r\n\tfunction isRegistrationPresent() public view returns (bool) {\r\n\t\treturn registrations[msg.sender].expiring_year > 0;\r\n\t}\r\n\r\n\tfunction processRegistration(uint _vin, uint _year, string memory _model) public {\r\n\t\tif (!isRegistrationPresent()) {\r\n\t\t\tregistrationCount++;\r\n\t\t\tuint _expiring_year = (now / 31536000) + 1970;\r\n\t\t\tregistrations[msg.sender] = Registration(_vin, _year, _model, _expiring_year);\r\n\t\t\temit registrationEvent(_vin);\r\n\t\t}\r\n\t}\r\n\r\n\tfunction reportSoldTraded(address _to) public {\r\n\t\tif (isRegistrationPresent()) {\r\n\t\t\tuint _car_vin = registrations[msg.sender].car_vin;\r\n\t\t\tuint _car_year = registrations[msg.sender].car_year;\r\n\t\t\tstring memory _car_model = registrations[msg.sender].car_model;\r\n\t\t\tuint _expiring_year = registrations[msg.sender].expiring_year;\r\n\t\t\tregistrations[msg.sender] = Registration(0, 0, \"\", 0);\r\n\t\t\tregistrations[_to] = Registration(_car_vin, _car_year, _car_model, _expiring_year);\r\n\t\t\temit registrationEvent(_car_vin);\r\n\t\t}\r\n\t}\r\n\r\n}",
  "sourcePath": "C:/dev/projects/dmv/contracts/VehicleRegistrationRenewal.sol",
  "compiler": {
    "name": "solc",
    "version": "0.5.0+commit.1d4f565a.Emscripten.clang"
  },
  "schemaVersion": "3.0.6",
  "updatedAt": "2019-04-24T12:50:04.668Z",
  "devdoc": {
    "methods": {}
  },
  "userdoc": {
    "methods": {}
  }
}