{
  "contractName": "VehicleRegistrationRenewal",
  "abi": [
    {
      "constant": true,
      "inputs": [],
      "name": "registrationCount",
      "outputs": [
        {
          "name": "",
          "type": "uint256"
        }
      ],
      "payable": false,
      "stateMutability": "view",
      "type": "function"
    },
    {
      "constant": true,
      "inputs": [
        {
          "name": "",
          "type": "address"
        }
      ],
      "name": "registrations",
      "outputs": [
        {
          "name": "car_vin",
          "type": "uint256"
        },
        {
          "name": "car_year",
          "type": "uint256"
        },
        {
          "name": "car_model",
          "type": "string"
        },
        {
          "name": "owner_pk",
          "type": "address"
        },
        {
          "name": "owner_first_name",
          "type": "string"
        },
        {
          "name": "owner_last_name",
          "type": "string"
        },
        {
          "name": "expiring_year",
          "type": "uint256"
        }
      ],
      "payable": false,
      "stateMutability": "view",
      "type": "function"
    },
    {
      "anonymous": false,
      "inputs": [
        {
          "indexed": true,
          "name": "_vin",
          "type": "uint256"
        }
      ],
      "name": "registrationEvent",
      "type": "event"
    },
    {
      "constant": true,
      "inputs": [],
      "name": "isRegistrationPresent",
      "outputs": [
        {
          "name": "",
          "type": "bool"
        }
      ],
      "payable": false,
      "stateMutability": "view",
      "type": "function"
    },
    {
      "constant": false,
      "inputs": [
        {
          "name": "_vin",
          "type": "uint256"
        },
        {
          "name": "_year",
          "type": "uint256"
        },
        {
          "name": "_model",
          "type": "string"
        },
        {
          "name": "_firstName",
          "type": "string"
        },
        {
          "name": "_lastName",
          "type": "string"
        }
      ],
      "name": "processRegistration",
      "outputs": [],
      "payable": false,
      "stateMutability": "nonpayable",
      "type": "function"
    }
  ],
  "bytecode": "0x608060405234801561001057600080fd5b506109b6806100206000396000f3fe608060405260043610610062576000357c0100000000000000000000000000000000000000000000000000000000900463ffffffff1680630d3eafd61461006757806378e2987414610092578063942e6bcf146100c1578063ded0bcba146102ab575b600080fd5b34801561007357600080fd5b5061007c6104b5565b6040518082815260200191505060405180910390f35b34801561009e57600080fd5b506100a76104bb565b604051808215151515815260200191505060405180910390f35b3480156100cd57600080fd5b50610110600480360360208110156100e457600080fd5b81019080803573ffffffffffffffffffffffffffffffffffffffff169060200190929190505050610506565b60405180888152602001878152602001806020018673ffffffffffffffffffffffffffffffffffffffff1673ffffffffffffffffffffffffffffffffffffffff1681526020018060200180602001858152602001848103845289818151815260200191508051906020019080838360005b8381101561019c578082015181840152602081019050610181565b50505050905090810190601f1680156101c95780820380516001836020036101000a031916815260200191505b50848103835287818151815260200191508051906020019080838360005b838110156102025780820151818401526020810190506101e7565b50505050905090810190601f16801561022f5780820380516001836020036101000a031916815260200191505b50848103825286818151815260200191508051906020019080838360005b8381101561026857808201518184015260208101905061024d565b50505050905090810190601f1680156102955780820380516001836020036101000a031916815260200191505b509a505050505050505050505060405180910390f35b3480156102b757600080fd5b506104b3600480360360a08110156102ce57600080fd5b810190808035906020019092919080359060200190929190803590602001906401000000008111156102ff57600080fd5b82018360208201111561031157600080fd5b8035906020019184600183028401116401000000008311171561033357600080fd5b91908080601f016020809104026020016040519081016040528093929190818152602001838380828437600081840152601f19601f8201169050808301925050505050505091929192908035906020019064010000000081111561039657600080fd5b8201836020820111156103a857600080fd5b803590602001918460018302840111640100000000831117156103ca57600080fd5b91908080601f016020809104026020016040519081016040528093929190818152602001838380828437600081840152601f19601f8201169050808301925050505050505091929192908035906020019064010000000081111561042d57600080fd5b82018360208201111561043f57600080fd5b8035906020019184600183028401116401000000008311171561046157600080fd5b91908080601f016020809104026020016040519081016040528093929190818152602001838380828437600081840152601f19601f820116905080830192505050505050509192919290505050610730565b005b60015481565b6000806000803373ffffffffffffffffffffffffffffffffffffffff1673ffffffffffffffffffffffffffffffffffffffff1681526020019081526020016000206006015411905090565b6000602052806000526040600020600091509050806000015490806001015490806002018054600181600116156101000203166002900480601f0160208091040260200160405190810160405280929190818152602001828054600181600116156101000203166002900480156105be5780601f10610593576101008083540402835291602001916105be565b820191906000526020600020905b8154815290600101906020018083116105a157829003601f168201915b5050505050908060030160009054906101000a900473ffffffffffffffffffffffffffffffffffffffff1690806004018054600181600116156101000203166002900480601f0160208091040260200160405190810160405280929190818152602001828054600181600116156101000203166002900480156106825780601f1061065757610100808354040283529160200191610682565b820191906000526020600020905b81548152906001019060200180831161066557829003601f168201915b505050505090806005018054600181600116156101000203166002900480601f0160208091040260200160405190810160405280929190818152602001828054600181600116156101000203166002900480156107205780601f106106f557610100808354040283529160200191610720565b820191906000526020600020905b81548152906001019060200180831161070357829003601f168201915b5050505050908060060154905087565b60016000815480929190600101919050555061074a6104bb565b15156108de5760006107b26301e133804281151561076457fe5b0401905060e0604051908101604052808781526020018681526020018581526020013373ffffffffffffffffffffffffffffffffffffffff168152602001848152602001838152602001828152506000803373ffffffffffffffffffffffffffffffffffffffff1673ffffffffffffffffffffffffffffffffffffffff168152602001908152602001600020600082015181600001556020820151816001015560408201518160020190805190602001906108209291906108e5565b5060608201518160030160006101000a81548173ffffffffffffffffffffffffffffffffffffffff021916908373ffffffffffffffffffffffffffffffffffffffff16021790555060808201518160040190805190602001906108849291906108e5565b5060a08201518160050190805190602001906108a19291906108e5565b5060c08201518160060155905050857f53876d202e8907a1c0388360a3e5be907759545bdde15ddcb06ce86299fa606b60405160405180910390a2505b5050505050565b828054600181600116156101000203166002900490600052602060002090601f016020900481019282601f1061092657805160ff1916838001178555610954565b82800160010185558215610954579182015b82811115610953578251825591602001919060010190610938565b5b5090506109619190610965565b5090565b61098791905b8082111561098357600081600090555060010161096b565b5090565b9056fea165627a7a72305820467d68742345c5d858b7e300705d5db50f4d103f6f343d6a0bd70f178c655add0029",
  "source": "pragma solidity ^0.5.0;\r\n\r\ncontract VehicleRegistrationRenewal {\r\n\r\n\tstruct Registration {\r\n\t\tuint car_vin;\r\n\t\tuint car_year;\r\n\t\tstring car_model;\r\n\t\taddress owner_pk;\r\n\t\tstring owner_first_name;\r\n\t\tstring owner_last_name;\r\n\t\tuint expiring_year;\r\n\t}\r\n\r\n\tmapping(address => Registration) public registrations;\r\n\r\n\tuint public registrationCount;\r\n\r\n\t// registration event\r\n    event registrationEvent (\r\n        uint indexed _vin\r\n    );\r\n\r\n\tfunction isRegistrationPresent() public view returns (bool) {\r\n\t\treturn registrations[msg.sender].expiring_year > 0;\r\n\t}\r\n\r\n\tfunction processRegistration(uint _vin, uint _year, string memory _model, string memory _firstName, string memory _lastName) public {\r\n\t\tregistrationCount++;\r\n\t\tif (!isRegistrationPresent()) {\r\n\t\t\tuint _expiring_year = (now / 31536000) + 1970;\r\n\t\t\tregistrations[msg.sender] = Registration(_vin, _year, _model, msg.sender, _firstName ,_lastName, _expiring_year);\r\n\t\t\temit registrationEvent(_vin);\r\n\t\t}\r\n\t}\r\n\r\n}",
  "sourcePath": "C:/dev/projects/dmv/contracts/VehicleRegistrationRenewal.sol",
  "compiler": {
    "name": "solc",
    "version": "0.5.0+commit.1d4f565a.Emscripten.clang"
  },
  "schemaVersion": "3.0.6",
  "updatedAt": "2019-04-18T08:00:27.800Z",
  "devdoc": {
    "methods": {}
  },
  "userdoc": {
    "methods": {}
  }
}