{
  "contractName": "VehicleRegistrationRenewal",
  "abi": [
    {
      "constant": true,
      "inputs": [],
      "name": "registrationCount",
      "outputs": [
        {
          "name": "",
          "type": "uint256"
        }
      ],
      "payable": false,
      "stateMutability": "view",
      "type": "function"
    },
    {
      "constant": true,
      "inputs": [
        {
          "name": "",
          "type": "address"
        }
      ],
      "name": "registrations",
      "outputs": [
        {
          "name": "car_vin",
          "type": "uint256"
        },
        {
          "name": "car_year",
          "type": "uint256"
        },
        {
          "name": "car_model",
          "type": "string"
        },
        {
          "name": "owner_pk",
          "type": "address"
        },
        {
          "name": "owner_first_name",
          "type": "string"
        },
        {
          "name": "owner_last_name",
          "type": "string"
        }
      ],
      "payable": false,
      "stateMutability": "view",
      "type": "function"
    },
    {
      "inputs": [],
      "payable": false,
      "stateMutability": "nonpayable",
      "type": "constructor"
    },
    {
      "constant": true,
      "inputs": [
        {
          "name": "_ownerPk",
          "type": "address"
        }
      ],
      "name": "isRegistrationPresent",
      "outputs": [
        {
          "name": "",
          "type": "bool"
        }
      ],
      "payable": false,
      "stateMutability": "view",
      "type": "function"
    }
  ],
  "bytecode": "0x608060405234801561001057600080fd5b50610576806100206000396000f3fe608060405260043610610057576000357c0100000000000000000000000000000000000000000000000000000000900463ffffffff1680630d3eafd61461005c578063942e6bcf146100875780639885fa9d1461026a575b600080fd5b34801561006857600080fd5b506100716102d3565b6040518082815260200191505060405180910390f35b34801561009357600080fd5b506100d6600480360360208110156100aa57600080fd5b81019080803573ffffffffffffffffffffffffffffffffffffffff1690602001909291905050506102d9565b60405180878152602001868152602001806020018573ffffffffffffffffffffffffffffffffffffffff1673ffffffffffffffffffffffffffffffffffffffff1681526020018060200180602001848103845288818151815260200191508051906020019080838360005b8381101561015c578082015181840152602081019050610141565b50505050905090810190601f1680156101895780820380516001836020036101000a031916815260200191505b50848103835286818151815260200191508051906020019080838360005b838110156101c25780820151818401526020810190506101a7565b50505050905090810190601f1680156101ef5780820380516001836020036101000a031916815260200191505b50848103825285818151815260200191508051906020019080838360005b8381101561022857808201518184015260208101905061020d565b50505050905090810190601f1680156102555780820380516001836020036101000a031916815260200191505b50995050505050505050505060405180910390f35b34801561027657600080fd5b506102b96004803603602081101561028d57600080fd5b81019080803573ffffffffffffffffffffffffffffffffffffffff1690602001909291905050506104fd565b604051808215151515815260200191505060405180910390f35b60015481565b6000602052806000526040600020600091509050806000015490806001015490806002018054600181600116156101000203166002900480601f0160208091040260200160405190810160405280929190818152602001828054600181600116156101000203166002900480156103915780601f1061036657610100808354040283529160200191610391565b820191906000526020600020905b81548152906001019060200180831161037457829003601f168201915b5050505050908060030160009054906101000a900473ffffffffffffffffffffffffffffffffffffffff1690806004018054600181600116156101000203166002900480601f0160208091040260200160405190810160405280929190818152602001828054600181600116156101000203166002900480156104555780601f1061042a57610100808354040283529160200191610455565b820191906000526020600020905b81548152906001019060200180831161043857829003601f168201915b505050505090806005018054600181600116156101000203166002900480601f0160208091040260200160405190810160405280929190818152602001828054600181600116156101000203166002900480156104f35780601f106104c8576101008083540402835291602001916104f3565b820191906000526020600020905b8154815290600101906020018083116104d657829003601f168201915b5050505050905086565b6000806000808473ffffffffffffffffffffffffffffffffffffffff1673ffffffffffffffffffffffffffffffffffffffff1681526020019081526020016000206000015411905091905056fea165627a7a7230582097007a9122f2cad3171687fd594579c9240cf525ca21a49e7e2b7f011a4281aa0029",
  "source": "pragma solidity ^0.5.0;\r\n\r\ncontract VehicleRegistrationRenewal {\r\n\r\n\tstruct Registration {\r\n\t\tuint car_vin;\r\n\t\tuint car_year;\r\n\t\tstring car_model;\r\n\t\taddress owner_pk;\r\n\t\tstring owner_first_name;\r\n\t\tstring owner_last_name;\r\n\t}\r\n\r\n\tmapping(address => Registration) public registrations;\r\n\r\n\tuint public registrationCount;\r\n\r\n\tconstructor() public {\r\n\t\t// nothing for now\r\n\t}\r\n\r\n\tfunction isRegistrationPresent(address _ownerPk) public view returns (bool) {\r\n\t\treturn registrations[_ownerPk].car_vin > 0;\r\n\t}\r\n\r\n\tfunction processRegistration(uint _vin, uint _year, string memory _model, address _ownerPk, string memory _firstName, string memory _lastName) private {\r\n\t\tregistrationCount++;\r\n\t\tregistrations[_ownerPk] = Registration(_vin, _year, _model, _ownerPk, _firstName ,_lastName);\r\n\t}\r\n\r\n}",
  "sourcePath": "C:/dev/projects/dmv/contracts/VehicleRegistrationRenewal.sol",
  "compiler": {
    "name": "solc",
    "version": "0.5.0+commit.1d4f565a.Emscripten.clang"
  },
  "schemaVersion": "3.0.6",
  "updatedAt": "2019-04-18T04:07:29.703Z",
  "devdoc": {
    "methods": {}
  },
  "userdoc": {
    "methods": {}
  }
}