{
  "contractName": "VehicleRegistrationRenewal",
  "abi": [
    {
      "constant": true,
      "inputs": [],
      "name": "registrationCount",
      "outputs": [
        {
          "name": "",
          "type": "uint256"
        }
      ],
      "payable": false,
      "stateMutability": "view",
      "type": "function",
      "signature": "0x0d3eafd6"
    },
    {
      "constant": true,
      "inputs": [
        {
          "name": "",
          "type": "address"
        }
      ],
      "name": "registrations",
      "outputs": [
        {
          "name": "car_vin",
          "type": "uint256"
        },
        {
          "name": "car_year",
          "type": "uint256"
        },
        {
          "name": "car_model",
          "type": "string"
        },
        {
          "name": "owner_pk",
          "type": "address"
        },
        {
          "name": "owner_first_name",
          "type": "string"
        },
        {
          "name": "owner_last_name",
          "type": "string"
        }
      ],
      "payable": false,
      "stateMutability": "view",
      "type": "function",
      "signature": "0x942e6bcf"
    },
    {
      "inputs": [],
      "payable": false,
      "stateMutability": "nonpayable",
      "type": "constructor",
      "signature": "constructor"
    },
    {
      "anonymous": false,
      "inputs": [
        {
          "indexed": true,
          "name": "_vin",
          "type": "address"
        }
      ],
      "name": "registrationEvent",
      "type": "event",
      "signature": "0xfefac6695864350719f7e40b0b42136322607d5e9e9dbfcb1cbaebcfbb60d5c4"
    },
    {
      "constant": true,
      "inputs": [],
      "name": "isRegistrationPresent",
      "outputs": [
        {
          "name": "",
          "type": "bool"
        }
      ],
      "payable": false,
      "stateMutability": "view",
      "type": "function",
      "signature": "0x78e29874"
    },
    {
      "constant": false,
      "inputs": [
        {
          "name": "_vin",
          "type": "uint256"
        },
        {
          "name": "_year",
          "type": "uint256"
        },
        {
          "name": "_model",
          "type": "string"
        },
        {
          "name": "_firstName",
          "type": "string"
        },
        {
          "name": "_lastName",
          "type": "string"
        }
      ],
      "name": "processRegistration",
      "outputs": [],
      "payable": false,
      "stateMutability": "nonpayable",
      "type": "function",
      "signature": "0xded0bcba"
    }
  ],
  "bytecode": "0x608060405234801561001057600080fd5b50610987806100206000396000f3fe608060405260043610610062576000357c0100000000000000000000000000000000000000000000000000000000900463ffffffff1680630d3eafd61461006757806378e2987414610092578063942e6bcf146100c1578063ded0bcba146102a4575b600080fd5b34801561007357600080fd5b5061007c6104ae565b6040518082815260200191505060405180910390f35b34801561009e57600080fd5b506100a76104b4565b604051808215151515815260200191505060405180910390f35b3480156100cd57600080fd5b50610110600480360360208110156100e457600080fd5b81019080803573ffffffffffffffffffffffffffffffffffffffff1690602001909291905050506104ff565b60405180878152602001868152602001806020018573ffffffffffffffffffffffffffffffffffffffff1673ffffffffffffffffffffffffffffffffffffffff1681526020018060200180602001848103845288818151815260200191508051906020019080838360005b8381101561019657808201518184015260208101905061017b565b50505050905090810190601f1680156101c35780820380516001836020036101000a031916815260200191505b50848103835286818151815260200191508051906020019080838360005b838110156101fc5780820151818401526020810190506101e1565b50505050905090810190601f1680156102295780820380516001836020036101000a031916815260200191505b50848103825285818151815260200191508051906020019080838360005b83811015610262578082015181840152602081019050610247565b50505050905090810190601f16801561028f5780820380516001836020036101000a031916815260200191505b50995050505050505050505060405180910390f35b3480156102b057600080fd5b506104ac600480360360a08110156102c757600080fd5b810190808035906020019092919080359060200190929190803590602001906401000000008111156102f857600080fd5b82018360208201111561030a57600080fd5b8035906020019184600183028401116401000000008311171561032c57600080fd5b91908080601f016020809104026020016040519081016040528093929190818152602001838380828437600081840152601f19601f8201169050808301925050505050505091929192908035906020019064010000000081111561038f57600080fd5b8201836020820111156103a157600080fd5b803590602001918460018302840111640100000000831117156103c357600080fd5b91908080601f016020809104026020016040519081016040528093929190818152602001838380828437600081840152601f19601f8201169050808301925050505050505091929192908035906020019064010000000081111561042657600080fd5b82018360208201111561043857600080fd5b8035906020019184600183028401116401000000008311171561045a57600080fd5b91908080601f016020809104026020016040519081016040528093929190818152602001838380828437600081840152601f19601f820116905080830192505050505050509192919290505050610723565b005b60015481565b6000806000803373ffffffffffffffffffffffffffffffffffffffff1673ffffffffffffffffffffffffffffffffffffffff1681526020019081526020016000206000015411905090565b6000602052806000526040600020600091509050806000015490806001015490806002018054600181600116156101000203166002900480601f0160208091040260200160405190810160405280929190818152602001828054600181600116156101000203166002900480156105b75780601f1061058c576101008083540402835291602001916105b7565b820191906000526020600020905b81548152906001019060200180831161059a57829003601f168201915b5050505050908060030160009054906101000a900473ffffffffffffffffffffffffffffffffffffffff1690806004018054600181600116156101000203166002900480601f01602080910402602001604051908101604052809291908181526020018280546001816001161561010002031660029004801561067b5780601f106106505761010080835404028352916020019161067b565b820191906000526020600020905b81548152906001019060200180831161065e57829003601f168201915b505050505090806005018054600181600116156101000203166002900480601f0160208091040260200160405190810160405280929190818152602001828054600181600116156101000203166002900480156107195780601f106106ee57610100808354040283529160200191610719565b820191906000526020600020905b8154815290600101906020018083116106fc57829003601f168201915b5050505050905086565b60016000815480929190600101919050555060c0604051908101604052808681526020018581526020018481526020013373ffffffffffffffffffffffffffffffffffffffff168152602001838152602001828152506000803373ffffffffffffffffffffffffffffffffffffffff1673ffffffffffffffffffffffffffffffffffffffff168152602001908152602001600020600082015181600001556020820151816001015560408201518160020190805190602001906107e79291906108b6565b5060608201518160030160006101000a81548173ffffffffffffffffffffffffffffffffffffffff021916908373ffffffffffffffffffffffffffffffffffffffff160217905550608082015181600401908051906020019061084b9291906108b6565b5060a08201518160050190805190602001906108689291906108b6565b509050503373ffffffffffffffffffffffffffffffffffffffff167ffefac6695864350719f7e40b0b42136322607d5e9e9dbfcb1cbaebcfbb60d5c460405160405180910390a25050505050565b828054600181600116156101000203166002900490600052602060002090601f016020900481019282601f106108f757805160ff1916838001178555610925565b82800160010185558215610925579182015b82811115610924578251825591602001919060010190610909565b5b5090506109329190610936565b5090565b61095891905b8082111561095457600081600090555060010161093c565b5090565b9056fea165627a7a72305820a481c7e53b68505e42e43a51464d0a9c87ba5e1cca03a356f0007c746c3619ac0029",
  "source": "pragma solidity ^0.5.0;\r\n\r\ncontract VehicleRegistrationRenewal {\r\n\r\n\tstruct Registration {\r\n\t\tuint car_vin;\r\n\t\tuint car_year;\r\n\t\tstring car_model;\r\n\t\taddress owner_pk;\r\n\t\tstring owner_first_name;\r\n\t\tstring owner_last_name;\r\n\t}\r\n\r\n\tmapping(address => Registration) public registrations;\r\n\r\n\tuint public registrationCount;\r\n\r\n\t// registration event\r\n    event registrationEvent (\r\n        address indexed _vin\r\n    );\r\n\r\n\tconstructor() public {\r\n\t\t// nothing for now\r\n\t}\r\n\r\n\tfunction isRegistrationPresent() public view returns (bool) {\r\n\t\treturn registrations[msg.sender].car_vin > 0;\r\n\t}\r\n\r\n\tfunction processRegistration(uint _vin, uint _year, string memory _model, string memory _firstName, string memory _lastName) public {\r\n\t\tregistrationCount++;\r\n\t\tregistrations[msg.sender] = Registration(_vin, _year, _model, msg.sender, _firstName ,_lastName);\r\n\t\temit registrationEvent(msg.sender);\r\n\t}\r\n\r\n}",
  "sourcePath": "C:/dev/projects/dmv/contracts/VehicleRegistrationRenewal.sol",
  "compiler": {
    "name": "solc",
    "version": "0.5.0+commit.1d4f565a.Emscripten.clang"
  },
  "schemaVersion": "3.0.6",
  "updatedAt": "2019-04-18T05:16:58.578Z",
  "devdoc": {
    "methods": {}
  },
  "userdoc": {
    "methods": {}
  }
}