{
  "contractName": "VehicleRegistrationRenewal",
  "abi": [
    {
      "constant": true,
      "inputs": [],
      "name": "registrationCount",
      "outputs": [
        {
          "name": "",
          "type": "uint256"
        }
      ],
      "payable": false,
      "stateMutability": "view",
      "type": "function",
      "signature": "0x0d3eafd6"
    },
    {
      "constant": true,
      "inputs": [
        {
          "name": "",
          "type": "address"
        }
      ],
      "name": "registrations",
      "outputs": [
        {
          "name": "car_vin",
          "type": "uint256"
        },
        {
          "name": "car_year",
          "type": "uint256"
        },
        {
          "name": "car_model",
          "type": "string"
        },
        {
          "name": "expiring_year",
          "type": "uint256"
        }
      ],
      "payable": false,
      "stateMutability": "view",
      "type": "function",
      "signature": "0x942e6bcf"
    },
    {
      "anonymous": false,
      "inputs": [
        {
          "indexed": true,
          "name": "_vin",
          "type": "uint256"
        }
      ],
      "name": "registrationEvent",
      "type": "event",
      "signature": "0x53876d202e8907a1c0388360a3e5be907759545bdde15ddcb06ce86299fa606b"
    },
    {
      "constant": true,
      "inputs": [],
      "name": "isRegistrationPresent",
      "outputs": [
        {
          "name": "",
          "type": "bool"
        }
      ],
      "payable": false,
      "stateMutability": "view",
      "type": "function",
      "signature": "0x78e29874"
    },
    {
      "constant": false,
      "inputs": [
        {
          "name": "_vin",
          "type": "uint256"
        },
        {
          "name": "_year",
          "type": "uint256"
        },
        {
          "name": "_model",
          "type": "string"
        }
      ],
      "name": "processRegistration",
      "outputs": [],
      "payable": false,
      "stateMutability": "nonpayable",
      "type": "function",
      "signature": "0x01269fe4"
    }
  ],
  "bytecode": "0x608060405234801561001057600080fd5b50610570806100206000396000f3fe608060405260043610610062576000357c0100000000000000000000000000000000000000000000000000000000900463ffffffff16806301269fe4146100675780630d3eafd61461014357806378e298741461016e578063942e6bcf1461019d575b600080fd5b34801561007357600080fd5b506101416004803603606081101561008a57600080fd5b810190808035906020019092919080359060200190929190803590602001906401000000008111156100bb57600080fd5b8201836020820111156100cd57600080fd5b803590602001918460018302840111640100000000831117156100ef57600080fd5b91908080601f016020809104026020016040519081016040528093929190818152602001838380828437600081840152601f19601f82011690508083019250505050505050919291929050505061027c565b005b34801561014f57600080fd5b50610158610386565b6040518082815260200191505060405180910390f35b34801561017a57600080fd5b5061018361038c565b604051808215151515815260200191505060405180910390f35b3480156101a957600080fd5b506101ec600480360360208110156101c057600080fd5b81019080803573ffffffffffffffffffffffffffffffffffffffff1690602001909291905050506103d7565b6040518085815260200184815260200180602001838152602001828103825284818151815260200191508051906020019080838360005b8381101561023e578082015181840152602081019050610223565b50505050905090810190601f16801561026b5780820380516001836020036101000a031916815260200191505b509550505050505060405180910390f35b61028461038c565b15156103815760016000815480929190600101919050555060006107b26301e13380428115156102b057fe5b04019050608060405190810160405280858152602001848152602001838152602001828152506000803373ffffffffffffffffffffffffffffffffffffffff1673ffffffffffffffffffffffffffffffffffffffff1681526020019081526020016000206000820151816000015560208201518160010155604082015181600201908051906020019061034492919061049f565b5060608201518160030155905050837f53876d202e8907a1c0388360a3e5be907759545bdde15ddcb06ce86299fa606b60405160405180910390a2505b505050565b60015481565b6000806000803373ffffffffffffffffffffffffffffffffffffffff1673ffffffffffffffffffffffffffffffffffffffff1681526020019081526020016000206003015411905090565b6000602052806000526040600020600091509050806000015490806001015490806002018054600181600116156101000203166002900480601f01602080910402602001604051908101604052809291908181526020018280546001816001161561010002031660029004801561048f5780601f106104645761010080835404028352916020019161048f565b820191906000526020600020905b81548152906001019060200180831161047257829003601f168201915b5050505050908060030154905084565b828054600181600116156101000203166002900490600052602060002090601f016020900481019282601f106104e057805160ff191683800117855561050e565b8280016001018555821561050e579182015b8281111561050d5782518255916020019190600101906104f2565b5b50905061051b919061051f565b5090565b61054191905b8082111561053d576000816000905550600101610525565b5090565b9056fea165627a7a72305820e9f20ba544cdd565552f821f0b3b6f4aaf2b2729cf12278080168253c27d0ee90029",
  "source": "pragma solidity ^0.5.0;\r\n\r\ncontract VehicleRegistrationRenewal {\r\n\r\n\tstruct Registration {\r\n\t\tuint car_vin;\r\n\t\tuint car_year;\r\n\t\tstring car_model;\r\n\t\tuint expiring_year;\r\n\t}\r\n\r\n\tmapping(address => Registration) public registrations;\r\n\r\n\tuint public registrationCount;\r\n\r\n\t// registration event\r\n    event registrationEvent (\r\n        uint indexed _vin\r\n    );\r\n\r\n\tfunction isRegistrationPresent() public view returns (bool) {\r\n\t\treturn registrations[msg.sender].expiring_year > 0;\r\n\t}\r\n\r\n\tfunction processRegistration(uint _vin, uint _year, string memory _model) public {\r\n\t\tif (!isRegistrationPresent()) {\r\n\t\t\tregistrationCount++;\r\n\t\t\tuint _expiring_year = (now / 31536000) + 1970;\r\n\t\t\tregistrations[msg.sender] = Registration(_vin, _year, _model, _expiring_year);\r\n\t\t\temit registrationEvent(_vin);\r\n\t\t}\r\n\t}\r\n\r\n}",
  "sourcePath": "C:/dev/projects/dmv/contracts/VehicleRegistrationRenewal.sol",
  "compiler": {
    "name": "solc",
    "version": "0.5.0+commit.1d4f565a.Emscripten.clang"
  },
  "schemaVersion": "3.0.6",
  "updatedAt": "2019-04-18T17:15:54.320Z",
  "devdoc": {
    "methods": {}
  },
  "userdoc": {
    "methods": {}
  }
}