{
  "contractName": "VirtualRecord",
  "abi": [
    {
      "constant": true,
      "inputs": [
        {
          "name": "",
          "type": "address"
        }
      ],
      "name": "virtualRecord",
      "outputs": [
        {
          "name": "numberOfTickets",
          "type": "uint256"
        },
        {
          "name": "numberOfAccidents",
          "type": "uint256"
        },
        {
          "name": "updatedByOfficer",
          "type": "address"
        }
      ],
      "payable": false,
      "stateMutability": "view",
      "type": "function",
      "signature": "0xacc8fdcd"
    },
    {
      "anonymous": false,
      "inputs": [
        {
          "indexed": true,
          "name": "_owner",
          "type": "address"
        }
      ],
      "name": "recordUpdated",
      "type": "event",
      "signature": "0xbe49f6e991e75fed877a1db4cfa41cbffa39ca50a81d6ea1cafc5b7409e60257"
    },
    {
      "constant": true,
      "inputs": [
        {
          "name": "_citizen",
          "type": "address"
        }
      ],
      "name": "isExistsVirtualRecord",
      "outputs": [
        {
          "name": "",
          "type": "bool"
        }
      ],
      "payable": false,
      "stateMutability": "view",
      "type": "function",
      "signature": "0xe1748caf"
    },
    {
      "constant": false,
      "inputs": [
        {
          "name": "_citizen",
          "type": "address"
        },
        {
          "name": "_was_accident",
          "type": "bool"
        },
        {
          "name": "_was_ticket",
          "type": "bool"
        }
      ],
      "name": "addVirtualRecord",
      "outputs": [],
      "payable": false,
      "stateMutability": "nonpayable",
      "type": "function",
      "signature": "0xf892b69f"
    }
  ],
  "bytecode": "0x608060405234801561001057600080fd5b50610627806100206000396000f3fe608060405260043610610057576000357c0100000000000000000000000000000000000000000000000000000000900463ffffffff168063acc8fdcd1461005c578063e1748caf146100fb578063f892b69f14610164575b600080fd5b34801561006857600080fd5b506100ab6004803603602081101561007f57600080fd5b81019080803573ffffffffffffffffffffffffffffffffffffffff1690602001909291905050506101cd565b604051808481526020018381526020018273ffffffffffffffffffffffffffffffffffffffff1673ffffffffffffffffffffffffffffffffffffffff168152602001935050505060405180910390f35b34801561010757600080fd5b5061014a6004803603602081101561011e57600080fd5b81019080803573ffffffffffffffffffffffffffffffffffffffff169060200190929190505050610217565b604051808215151515815260200191505060405180910390f35b34801561017057600080fd5b506101cb6004803603606081101561018757600080fd5b81019080803573ffffffffffffffffffffffffffffffffffffffff1690602001909291908035151590602001909291908035151590602001909291905050506102b0565b005b60006020528060005260406000206000915090508060000154908060010154908060020160009054906101000a900473ffffffffffffffffffffffffffffffffffffffff16905083565b6000806000808473ffffffffffffffffffffffffffffffffffffffff1673ffffffffffffffffffffffffffffffffffffffff1681526020019081526020016000206000015411806102a9575060008060008473ffffffffffffffffffffffffffffffffffffffff1673ffffffffffffffffffffffffffffffffffffffff16815260200190815260200160002060010154115b9050919050565b811561045357600060016000808673ffffffffffffffffffffffffffffffffffffffff1673ffffffffffffffffffffffffffffffffffffffff168152602001908152602001600020600101540190506060604051908101604052806000808773ffffffffffffffffffffffffffffffffffffffff1673ffffffffffffffffffffffffffffffffffffffff1681526020019081526020016000206000015481526020018281526020013373ffffffffffffffffffffffffffffffffffffffff168152506000808673ffffffffffffffffffffffffffffffffffffffff1673ffffffffffffffffffffffffffffffffffffffff168152602001908152602001600020600082015181600001556020820151816001015560408201518160020160006101000a81548173ffffffffffffffffffffffffffffffffffffffff021916908373ffffffffffffffffffffffffffffffffffffffff1602179055509050508373ffffffffffffffffffffffffffffffffffffffff167fbe49f6e991e75fed877a1db4cfa41cbffa39ca50a81d6ea1cafc5b7409e6025760405160405180910390a2505b80156105f657600060016000808673ffffffffffffffffffffffffffffffffffffffff1673ffffffffffffffffffffffffffffffffffffffff168152602001908152602001600020600001540190506060604051908101604052808281526020016000808773ffffffffffffffffffffffffffffffffffffffff1673ffffffffffffffffffffffffffffffffffffffff1681526020019081526020016000206001015481526020013373ffffffffffffffffffffffffffffffffffffffff168152506000808673ffffffffffffffffffffffffffffffffffffffff1673ffffffffffffffffffffffffffffffffffffffff168152602001908152602001600020600082015181600001556020820151816001015560408201518160020160006101000a81548173ffffffffffffffffffffffffffffffffffffffff021916908373ffffffffffffffffffffffffffffffffffffffff1602179055509050508373ffffffffffffffffffffffffffffffffffffffff167fbe49f6e991e75fed877a1db4cfa41cbffa39ca50a81d6ea1cafc5b7409e6025760405160405180910390a2505b50505056fea165627a7a723058200a1a753a8ea0e6d988a31d41fe305158b80f53a8aed30ed2e052be0b9d7dfc710029",
  "source": "pragma solidity ^0.5.0;\r\n\r\ncontract VirtualRecord {\r\n\r\n\tstruct Record {\r\n\t\tuint numberOfTickets;\r\n        uint numberOfAccidents;\r\n        address updatedByOfficer;\r\n\t}\r\n\tmapping(address => Record) public virtualRecord;\r\n\r\n    event recordUpdated (\r\n    \taddress indexed _owner\r\n    );\r\n\r\n    function isExistsVirtualRecord(address _citizen) public view returns (bool) {\r\n    \treturn virtualRecord[_citizen].numberOfTickets > 0 || virtualRecord[_citizen].numberOfAccidents > 0;\r\n\t}\r\n\r\n\tfunction addVirtualRecord(address _citizen, bool _was_accident, bool _was_ticket) public {\r\n        if (_was_accident) {\r\n            uint accidentCount = virtualRecord[_citizen].numberOfAccidents + 1;\r\n            virtualRecord[_citizen] = Record(virtualRecord[_citizen].numberOfTickets, accidentCount, msg.sender);\r\n            emit recordUpdated(_citizen);\r\n        }\r\n        if (_was_ticket) {\r\n            uint ticketCount = virtualRecord[_citizen].numberOfTickets + 1;\r\n            virtualRecord[_citizen] = Record(ticketCount, virtualRecord[_citizen].numberOfAccidents, msg.sender);\r\n\t\t\temit recordUpdated(_citizen);\r\n\t\t}\r\n\t}\r\n}",
  "sourcePath": "C:/dev/projects/dmv/contracts/VirtualRecord.sol",
  "compiler": {
    "name": "solc",
    "version": "0.5.0+commit.1d4f565a.Emscripten.clang"
  },
  "schemaVersion": "3.0.6",
  "updatedAt": "2019-04-29T02:09:38.007Z",
  "devdoc": {
    "methods": {}
  },
  "userdoc": {
    "methods": {}
  }
}